S01200004672656552544F5331302E73726563E7
S11300000C943E000C9485000C945B000C945B00F3
S11300100C945B000C945B000C945B000C945B00F0
S11300200C945B000C945B000C945B000C945B00E0
S11300300C945B000C945B000C94D2060C945B0053
S11300400C945B000C945B000C945B000C945B00C0
S11300500C945B000C945B000C945B000C945B00B0
S11300600C945B000C945B004A104A104A108510F3
S1130070731082104A104A108510731011241FBE89
S1130080CFEFD8E0DEBFCDBF11E0A0E0B1E0E2E207
S1130090F6E202C005900D92A633B107D9F727E026
S11300A0A6E3B1E001C01D92AE3CB207E1F70E94A5
S11300B0C4040C940F130C9400008F938FB78F9388
S11300C0F8948091CA078F5F8093CA078091CB0709
S11300D08F4F8093CB078091CC078F4F8093CC07B1
S11300E08091CD078F4F8093CD078F918FBF8F91D4
S11300F00895539A1BB8E89AE9E6F0E0808181609C
S1130100808383E08093810008951F920F920FB63D
S11301100F9211248F939F934A9B05C010928500E0
S11301201092840008C0809184009091850090937F
S1130130C4078093C3079F918F910F900FBE0F90B8
S11301401F9018951092C4071092C3075B9A25E379
S11301502A95F1F700005B988091C3079091C4073A
S1130160892BD1F38091C3079091C40784379E40B3
S1130170F0F46091C3077091C40780E090E00E949E
S113018049112DEB37E346E856E30E94D71120E0EE
S113019030E040E05FE30E94D71120E03CEF45E00F
S11301A057E40E94D7110E941A11862F089589E2FC
S11301B008950F931F93CF93DF93EC010E94A00B3C
S11301C08091360181111DC0EBE3F1E080E491E000
S11301D09183808313821282E7E3F1E089EF95E053
S11301E09383828311821082AFE3B1E014969C93CF
S11301F08E9313971296FC93EE93119781E080935C
S11302003601209709F46BC09E012C5F3F4F239663
S1130210C83FD54008F060C0E0913B01F0913C013B
S1130220ABE3B1E002C0DF01FC018281938182175C
S1130230930720F4808191810097A9F7C1E0E73307
S1130240FC0709F449C0CD91DC9111978E010C5F34
S11302501F4F808191818D939C9382819381821B16
S1130260930B8930910510F1BF01620F731FDB01FD
S113027013969C938E9312973383228312964D91F7
S11302805C9113978BE391E001C0CD01EC01A8814F
S1130290B98112962D913C91139724173507A8F331
S11302A0EB01B983A883DC016D937C9380910001F9
S11302B09091010122813381821B930B9093010160
S11302C0809300010E946B0C0115110559F40E94E2
S11302D0C70100E010E006C00E946B0CF8CF0E943A
S11302E06B0CF5CFC801DF91CF911F910F91089549
S11302F00F931F93CF93DF93009741F1EC018C018F
S1130300045011090E94A00BF80142815381ABE310
S1130310B1E001C0DF01ED91FC911197228133819D
S113032024173507B8F32497F983E8830D931C93B6
S113033020910001309101018A819B81820F931FDA
S113034090930101809300010E946B0CDF91CF9187
S11303501F910F9108958FE380937E0080B7877F6C
S113036080BF80B7806880BF83B7817F83BF0FB6AB
S1130370F8940F9283B7816083BF85B7806685BF89
S11303808F7D85BF0F900FBE889513BE0895259A63
S11303902D9A83ED90E30197F1F700C000001D9AB8
S11303A0F8CF259A2D9A2FE78AE196E021508040D4
S11303B09040E1F700C000001D9AF5CFFC010396C0
S11303C0928381832FEF3FEF348323839683858346
S11303D09087878310820895FC0111861086089502
S11303E0CF93DF939C01FB01DC011196CD91DC914D
S11303F01297D383C2838C819D81958384838C815E
S11304009D81DC0113967C936E9312977D836C839C
S113041031872087F90180818F5F8083DF91CF91BD
S11304200895CF93DF93EB01488159814F3F2FEF1C
S1130430520721F4FC01A781B0850DC0DC0113969D
S113044001C0DF011296ED91FC9113972081318157
S113045042175307B0F71296ED91FC911397FB8363
S1130460EA83D583C483BD83AC831396DC93CE9394
S1130470129799878887FC0120812F5F2083DF9161
S1130480CF910895CF93DF93FC01A085B185C281FC
S1130490D381848195819D838C83C481D58182811C
S11304A093819B838A8311968D919C911297E8176F
S11304B0F90731F48481958112969C938E93119758
S11304C0118610868C9181508C938C91DF91CF9101
S11304D00895D8E1C0E68CE291E00E94EA0C809194
S11304E0C5078431C0F70FB6F8940F92D5B9CBB9CC
S11304F02FEF81EF9BE2215080409040E1F700C054
S1130500000010923D0710923E0710923F07109290
S113051040070F900FBEDFCF1092C50088E680938E
S1130520C400E1ECF0E088E180838081886080830E
S113053080818061808386E08093C2000895E0EC2E
S1130540F0E0908195FFFDCF8093C6000895CF938E
S1130550DF93EC018881882331F021960E949F0269
S113056089918111FBCFDF91CF910895CF93DF93D0
S1130570880FECEBF0E0A9EBB0E0CBEBD0E034E893
S113058054EA74E9108250839081992354F09FEFC8
S11305909150208122231CF09111FACFF3CF99239B
S11305A089F39C91987F983011F0903159F78883A2
S11305B030839081992354F09FEF9150208122231E
S11305C01CF09111FACFDECF9923E1F29C91987F30
S11305D0983111F09034B1F6688330839081992377
S11305E054F09FEF9150208122231CF09111FACFF7
S11305F0C9CF992339F29C91987F983219F6488390
S11306003083908199235CF09FEF915020812223C5
S11306101CF09111FACFB6CF992309F4B3CF9C9172
S1130620987F983209F0AECF7083908194FD0BC00F
S11306309FEF9150208124FD03C09111FACFA2CFE6
S1130640992309F49FCFDF91CF910895CF92DF9240
S1130650EF92FF920F931F93CF93DF93880FCC24D5
S1130660C394C80E30E1ECEBF0E014EAF12C00E0A6
S1130670C9EBD0E0ABEBB0E074E80F2EF4ECDF2E66
S1130680F02D0F2EF4E9EF2EF02D10839081992395
S11306905CF09FEF9150208122231CF09111FACF3E
S11306A094C0992309F498C09881987F983019F0E0
S11306B0903109F091C08C937083908199235CF000
S11306C09FEF9150208122231CF09111FACF7DC01D
S11306D0992309F481C09881987F983119F0903456
S11306E009F07AC06C937083908199235CF09FEF3A
S11306F09150208122231CF09111FACF66C09923D6
S113070009F46AC09881987F983209F065C0108313
S1130710908199235CF09FEF9150208122231CF05B
S11307209111FACF52C0992309F456C09881987F49
S1130730983019F0903109F04FC0CC9270839081B9
S113074099235CF09FEF9150208122231CF091119A
S1130750FACF3BC0992309F43FC09881987F983120
S113076011F09034C9F5D0829081992344F09FEF21
S113077091502081222324F09111FACF01C09FEFE0
S11307804C9150E0542F44279923F9F070839081C1
S1130790992344F09FEF91502081222324F091115A
S11307A0FACF01C09FEF2C91422B992371F0E08284
S11307B0908194FD15C09FEF9150208124FD03C0CA
S11307C09111FACF02C091110BC01082315009F07F
S11307D05CCF40E050E004C04F2D502F90E0F3CFA9
S11307E0CA01DF91CF911F910F91FF90EF90DF909D
S11307F0CF900895CF93DF93CDB7DEB760970FB650
S1130800F894DEBF0FBECDBF8E010F5F1F4F0F2EBA
S1130810F3E03F2EF02D4E0188E0880E911C0F2E40
S1130820F6E2AF2EB12CF02D0F2EF6E2CF2EF0E231
S1130830DF2EF02D0F2EFAE0EF2EF12CF02D87E0B5
S1130840E2E0F1E0D80101900D928A95E1F7F4011C
S1130850832D11928A95E9F767E488E60E942603BE
S11308606CE870E00E949112072E000C880B990B23
S11308700E944B110E9444122B013C0160913D07E0
S113088070913E0780913F07909140070E944B1161
S1130890A30192010E94A7100E941311DC01CB0155
S11308A080933D0790933E07A0933F07B093400782
S11308B04AE0BE01655F7F4F0E94DA128AE0ECE0F5
S11308C0F1E0D80101900D928A95E1F78091390702
S11308D090913A07A0913B07B0913C074497A1053A
S11308E0B1053CF0C8010E94A702CE010B960E94FC
S11308F0A70285E090E00E94EA0C0E94A200809387
S1130900C5074AE0BE01655F7F4F90E00E94DA129E
S1130910BA82A982BE01655F7F4FC8010E94CF12CF
S1130920F80101900020E9F73197D182C082F38267
S1130930E2828091390790913A07A0913B07B091E8
S11309403C074497A105B1055CF0C8010E94A702C9
S11309501092390710923A0710923B0710923C0705
S11309608091390790913A07A0913B07B0913C07D9
S11309700196A11DB11D8093390790933A07A09366
S11309803B07B0933C075BCF0E9479000E948C0226
S11309908CE08093B80047E069E188E60E94B602E3
S11309A048E16BE188E60E94B60241E06BE688E626
S11309B00E94B602E12CF12C01E020E030E045E594
S11309C050E066E171E08AEF93E00E945B0A20E068
S11309D030E045E550E06CE171E086E595E00E9489
S11309E05B0A02E020E030E045E550E062E271E0BD
S11309F089E692E00E945B0A78940E94720BFFCF12
S1130A0088E185B980E68BB981E090E00E94EA0C28
S1130A1080E185B980E28BB981E090E00E94EA0C24
S1130A20089584E185B980EA8BB981E090E00E9461
S1130A30EA0C80E185B980E28BB981E090E00E9404
S1130A40EA0C089580913D0790913E07A0913F07DD
S1130A50B0914007AC01BD014E5F5F4F6F4F7F4FB8
S1130A60453051056105710588F484E185B980E656
S1130A708BB981E090E00E94EA0C80E185B980E2C4
S1130A808BB981E090E00E94EA0C089583309105CF
S1130A90A105B1051CF40E94000508958E3F9F4FE7
S1130AA0AF4FBF4F14F00E94110508950E94220514
S1130AB0FDCF31E1FC013083319722E2208331976D
S1130AC0A3E3A083319760833197708331971082B9
S1130AD0319760E8608331971082319762E06083D8
S1130AE0319763E06083319764E06083319765E018
S1130AF06083319766E06083319767E06083319764
S1130B0068E06083319769E06083319760E16083D6
S1130B1031973083319732E13083319733E1308339
S1130B20319734E13083319735E13083319736E1C1
S1130B303083319737E13083319738E1308331970F
S1130B4039E13083319730E23083319731E23083B9
S1130B5031972083319723E2208331974083319763
S1130B605083319726E22083319727E220833197FF
S1130B7028E22083319729E22083319720E32083E0
S1130B80319721E320838697089581E194E090933F
S1130B90C7078093C6079093C9078093C8078EE060
S1130BA087BD82E084BD85E085BDEEE6F0E080810E
S1130BB082608083A091A507B091A607CD91CDBF97
S1130BC0DD91DEBFFF91EF91DF91CF91BF91AF91A6
S1130BD09F918F917F916F915F914F913F912F9151
S1130BE01F910F91FF90EF90DF90CF90BF90AF9047
S1130BF09F908F907F906F905F904F903F902F9039
S1130C001F900F900FBE0F90089581E008950F92EA
S1130C100FB6F8940F921F9211242F923F924F9285
S1130C205F926F927F928F929F92AF92BF92CF9278
S1130C30DF92EF92FF920F931F932F933F934F9363
S1130C405F936F937F938F939F93AF93BF93CF9350
S1130C50DF93EF93FF93A091A507B091A6070DB67C
S1130C600D920EB60D920E94FE0CA091A507B091B4
S1130C70A607CD91CDBFDD91DEBFFF91EF91DF914E
S1130C80CF91BF91AF919F918F917F916F915F9120
S1130C904F913F912F911F910F91FF90EF90DF9013
S1130CA0CF90BF90AF909F908F907F906F905F9008
S1130CB04F903F902F901F900F900FBE0F9008956C
S1130CC00F920FB6F8940F921F9211242F923F9215
S1130CD04F925F926F927F928F929F92AF92BF9248
S1130CE0CF92DF92EF92FF920F931F932F933F9334
S1130CF04F935F936F937F938F939F93AF93BF9320
S1130D00CF93DF93EF93FF93A091A507B091A6072C
S1130D100DB60D920EB60D9213BE8091C807909138
S1130D20C90701979093C9078093C807892B51F489
S1130D300E945D008091C6079091C7079093C907F0
S1130D408093C8070E94B00B81110E94FE0CA091F1
S1130D50A507B091A607CD91CDBFDD91DEBFFF9170
S1130D60EF91DF91CF91BF91AF919F918F917F913F
S1130D706F915F914F913F912F911F910F91FF9030
S1130D80EF90DF90CF90BF90AF909F908F907F9027
S1130D906F905F904F903F902F901F900F900FBED9
S1130DA00F9008950E94600618950FB6F8940F925C
S1130DB0FC01928D0F900FBE81E0911180E00895A7
S1130DC00F931F93CF93DF93EC01042F1A8D4C8D57
S1130DD041110CC088819981892B09F042C08C8112
S1130DE09D810E94450E1D821C8242C0011117C0C4
S1130DF050E08A819B810E94BF122C8D8A819B8145
S1130E00820F911D9B838A832C813D8182179307D6
S1130E1050F1888199819B838A8380E029C050E0C6
S1130E208E819F810E94BF128C8D90E09195819557
S1130E3091092E813F81280F391F3F832E834881DA
S1130E4059812417350730F42C813D81820F931F7B
S1130E509F838E83023049F4112349F0115080E0BE
S1130E6007C080E005C080E003C080E001C080E0EE
S1130E701F5F1A8FDF91CF911F910F910895FC018D
S1130E80448D4423A9F050E026813781240F351F77
S1130E9037832683848195812817390720F0808140
S1130EA0918197838683CB01668177810E94BF12EB
S1130EB00895EF92FF920F931F93CF938C010FB677
S1130EC0F8940F92FC01C68D1C16ACF48189811133
S1130ED006C011C0F8018189811105C00CC07801D8
S1130EE0F1E1EF0EF11CC7010E94AA0D81110E94CD
S1130EF0330EC15079F78FEFF801868F0F900FBE34
S1130F000FB6F8940F92C58D1C16ACF48085811130
S1130F1006C011C0F8018085811105C00CC078019C
S1130F20F8E0EF0EF11CC7010E94AA0D81110E9486
S1130F30330EC15079F78FEFF801858F0F900FBEF4
S1130F40CF911F910F91FF90EF900895CF93DF936E
S1130F50EC010FB6F8940F92E881F9818B8D2C8DFA
S1130F6090E030E0829FA001839F500D929F500D2E
S1130F7011244E0F5F1F5D834C831A8EFB83EA831B
S1130F800197829FA001839F500D929F500D1124C1
S1130F90CF01840F951F9F838E838FEF8D8F8E8F4C
S1130FA061110CC08885882389F0CE0108960E94BF
S1130FB0AA0D882359F00E94070608C0CE0108969E
S1130FC00E94DE01CE0141960E94DE010F900FBE09
S1130FD081E0DF91CF9108950F931F93CF93DF9317
S1130FE0082F162F6623C1F0869FC00111244F9647
S1130FF00E94D900EC01009741F415C00B8F1C8F9F
S113100061E0CE010E94A6070EC04F9699838883A3
S1131010F5CFD983C883F2CF8FE190E00E94D90045
S1131020EC01892BB1F7CE01DF91CF911F910F9184
S113103008959F92AF92BF92CF92DF92EF92FF9268
S11310400F931F93CF93DF9300D000D01F92CDB79F
S1131050DEB78C016B015D834C83A22EB12C9924E5
S113106093947C0188E0E80EF11C0FB6F8940F927B
S1131070F801928D838D981718F0F2E0AF1219C021
S11310804A2DB601C8010E94E006F801918999230E
S113109049F0C80141960E94AA0D882331F00E94AC
S11310A0070603C081110E9407060F900FBE81E05E
S11310B050C08C819D81892B21F40F900FBE80E05C
S11310C048C0B11005C0CE0101960E94F20DB92CA2
S11310D00F900FBE0E94A00B0FB6F8940F92F80168
S11310E0858D8F3F09F4158EF801868D8F3F09F4A5
S11310F0168E0F900FBEBE016C5F7F4FCE0101961E
S11311000E94FD0D81111FC00FB6F8940F92F801D3
S1131110928D838D0F900FBE98130FC06C817D81CB
S1131120C7010E947F0DC8010E9459070E946B0CE1
S113113081119BCF0E94070698CFC8010E945907CE
S11311400E946B0C92CFC8010E9459070E946B0C3D
S113115080E00F900F900F900F900F90DF91CF9140
S11311601F910F91FF90EF90DF90CF90BF90AF90C1
S11311709F900895EF92FF920F931F93CF93DF9365
S11311808A01FC01528D338D531710F02230F1F493
S1131190422F7801EC011E8D0E94E0061F3F81F46E
S11311A089898823A9F0CE0141960E94AA0D88233B
S11311B089F0E114F10481F081E0F70180830DC02E
S11311C0FF24F394F10EFE8E81E007C080E005C099
S11311D081E003C081E001C081E0DF91CF911F91E4
S11311E00F91FF90EF9008959F92AF92BF92CF928C
S11311F0DF92EF92FF920F931F93CF93DF9300D070
S113120000D01F92CDB7DEB78C015B015D834C83A8
S1131210E12C992493946C0181E1C80ED11C0FB682
S1131220F8940F92F801F28CFF20A9F0B501C801DF
S11312300E943F07FA94F801F28E8085882339F0E2
S1131240C80108960E94AA0D81110E9407060F90FA
S11312500FBE81E051C08C819D81892B21F40F90B8
S11312600FBE80E049C0E11005C0CE0101960E9486
S1131270F20DE92C0F900FBE0E94A00B0FB6F8944C
S11312800F92F801858D8F3F09F4158EF801868D34
S11312908F3F09F4168E0F900FBEBE016C5F7F4F17
S11312A0CE0101960E94FD0D81111AC0C8010E9451
S11312B0D506882379F06C817D81C6010E947F0D5B
S11312C0C8010E9459070E946B0C8111A8CF0E948B
S11312D00706A5CFC8010E9459070E946B0C9FCF37
S11312E0C8010E9459070E946B0CC8010E94D506D0
S11312F0882309F494CF80E00F900F900F900F9003
S11313000F90DF91CF911F910F91FF90EF90DF909D
S1131310CF90BF90AF909F900895CF93DF93EC014F
S11313200FB6F8940F928D8D8F3F09F41D8E8E8D1C
S11313308F3F09F41E8E0F900FBE8A8D811104C059
S1131340CE0141960E94910DCE010E945907DF9172
S1131350CF910895E0917F07F091800780818111FA
S113136007C08FEF9FEF9093570780935607089518
S1131370E0917F07F09180070580F681E02D0680DB
S1131380F781E02D828193819093570780935607CC
S11313900895FF920F931F93CF93DF93EC01F62EE2
S11313A000915E0710915F078091A5079091A607B1
S11313B002960E944202CF3F8FEFD80769F4FF20C4
S11313C059F06091A5077091A6076E5F7F4F81E683
S11313D097E00E94F0012FC0C00FD11FE091A50734
S11313E0F091A607D383C283C017D10768F4609134
S11313F0A5077091A60780917D0790917E076E5F87
S11314007F4F0E94110217C06091A5077091A60733
S113141080917F07909180076E5F7F4F0E94110239
S11314208091560790915707C817D90720F4D09395
S11314305707C0935607DF91CF911F910F91FF90EB
S113144008950BE617E00F2EF1E8EF2EF7E0FF2EDC
S1131450F02D80916A07882329F10FB6F8940F9232
S1131460D8011596ED91FC911697C681D781CE01CE
S113147002960E9442028091600781508093600727
S113148080916A07815080936A070F900FBE8F89FD
S1131490988D0E947801CE010E94780180916A079C
S11314A08111DBCFF7018081823010F00E940706A2
S11314B00E94AB01CECF4F925F926F927F928F9238
S11314C09F92AF92BF92CF92DF92EF92FF920F93CF
S11314D0CF93DF934C016B015A012901CA010E9489
S11314E0D9003C01892B09F4ECC088E290E00E9409
S11314F0D900EC01892BB1F0788E6F8AA50165EAD9
S113150070E0C3010E94C81281E0A81AB1088F8953
S1131510988DA80EB91ED6018C91898F8C9181115A
S113152005C018C0C3010E947801CBC0AE01465E5D
S11315305F4FF6013196B8E0CB0ED11CCF0121915B
S1131540DA012D93AD01DC018C91882319F0EC159F
S1131550FD05A1F718A2043008F003E00E8B09A3DF
S11315601AA26E01B2E0CB0ED11CC6010E94EC019E
S1131570CE010C960E94EC01D987C88784E090E0E4
S1131580801B91099D878C87DB8BCA8B1BA21CA2B5
S11315901DA21EA21FA2A201B401C5010E945905E9
S11315A099838883E114F10419F0F701D183C0838E
S11315B00FB6F8940F92809160078F5F8093600755
S11315C08091A5079091A607892BD1F5D093A60702
S11315D0C093A50780916007813009F041C081E87C
S11315E097E00E94DE018AE897E00E94DE0183E929
S11315F097E00E94DE018CE997E00E94DE018AE414
S113160097E00E94DE0181E497E00E94DE0184E716
S113161097E00E94DE018BE697E00E94DE0181E6FE
S113162097E00E94DE018AE497E09093800780931C
S11316307F0781E497E090937E0780937D0710C035
S113164080915C0781110CC0E091A507F091A60779
S113165096898E89891720F0D093A607C093A50791
S1131660809158078F5F809358078E8990915D070A
S1131670981710F480935D0790E09C01220F331FAC
S1131680220F331F220F331F820F931FB6018F5770
S1131690984F0E94F0010F900FBE80915C07882341
S11316A061F0E091A507F091A60796898E899817B5
S11316B030F40E94070681E005C081E003C081E0A8
S11316C001C08FEFDF91CF910F91FF90EF90DF90EA
S11316D0CF90BF90AF909F908F907F906F905F90CE
S11316E04F900895EF92FF920F930F2EF4E5EF2E93
S11316F0F7E0FF2EF02D00E020E030E045E550E07B
S113170068E271E081E29AE00E945B0A8130A1F410
S11317100E94DD0E813081F4F8948FEF9FEF909357
S113172057078093560781E080935C0710925F0708
S113173010925E070E94C5050F91FF90EF900895E7
S1131740809153078F5F8093530708950FB6F894E1
S11317500F9280915E0790915F070F900FBE0895DE
S1131760CF92DF92EF92FF920F931F93CF93DF9369
S113177080915307811199C0E0905E07F0905F0754
S11317808FEFE81AF80AF0925F07E0925E07E1141F
S1131790F104B9F480917F079091800720917D072F
S11317A030917E073093800720937F0790937E07C4
S11317B080937D07809159078F5F809359070E941A
S11317C0AA098091560790915707E816F90610F474
S11317D0D12C53C0D12CCC24C394E0917F07F09139
S11317E080078081811107C08FEF9FEF9093570787
S11317F08093560742C0E0917F07F09180070580EF
S1131800F681E02DC681D7818A819B81E816F9068D
S113181028F490935707809356072FC08E010E5FCC
S11318201F4FC8010E9442028C899D89892B21F097
S1131830CE010C960E9442028E8990915D07981702
S113184010F480935D0790E09C01220F331F220F58
S1131850331F220F331F820F931FB8018F57984FE6
S11318600E94F001E091A507F091A6079E89868960
S1131870981708F4B2CFDC2CB0CFE091A507F09113
S1131880A607868990E0FC01EE0FFF1FEE0FFF1FF5
S1131890EE0FFF1F8E0F9F1FFC01EF57F84F808143
S11318A0823048F0DD24D39406C080915B078F5FBB
S11318B080935B07D12C80915A07882311F0DD2493
S11318C0D3948D2DDF91CF911F910F91FF90EF90C5
S11318D0DF90CF900895DF92EF92FF920F931F93C2
S11318E0CF93DF930FB6F8940F92809153078150F2
S11318F0809353078091530781115FC080916007E3
S1131900811133C05DC0D7011596ED91FC911697F6
S1131910C681D781CE010C960E9442028E010E5FD1
S11319201F4FC8010E9442028E8990915D0798174B
S113193010F480935D0790E09C01220F331F220F67
S1131940331F220F331F820F931FB8018F57984FF5
S11319500E94F001E091A507F091A6079E8986896F
S1131960981768F0D0925A070AC0C0E0D0E00F2E52
S1131970F4E7EF2EF7E0FF2EF02DDD24D394F701EA
S113198080818111C0CFCD2B11F00E94AA09C09192
S11319905B07CC2351F0D1E00E94B00B8111D093AE
S11319A05A07C150C9F710925B0780915A078823E0
S11319B031F00E94070681E003C080E001C080E0AE
S11319C00F900FBEDF91CF911F910F91FF90EF9079
S11319D0DF900895CF93DF93EC01892B51F00E949F
S11319E0A00B60E0CE010E94C9090E946B0C81111A
S11319F002C00E940706DF91CF910895809153079A
S1131A00882321F081E080935A07089510925A07A1
S1131A10A091A507B091A607E091A507F091A607AC
S1131A202D913C918789908D8217930760F0609186
S1131A30A5077091A6078091A5079091A607675EF8
S1131A407F4F0E94D10120915D07822F90E0FC011D
S1131A50EE0FFF1FEE0FFF1FEE0FFF1FE80FF91F22
S1131A60EF57F84F3081311111C02150822F90E08F
S1131A70FC01EE0FFF1FEE0FFF1FEE0FFF1FE80F1D
S1131A80F91FEF57F84F3081332379F3AC01440F3A
S1131A90551F440F551F440F551F480F591FDA0196
S1131AA0AF57B84F1196ED91FC9112970280F381D4
S1131AB0E02D1296FC93EE9311974C57584FE41770
S1131AC0F50729F442815381FD0152834183FC01CE
S1131AD0EE0FFF1FEE0FFF1FEE0FFF1F8E0F9F1F56
S1131AE0FC01EF57F84F0180F281E02D8681978148
S1131AF09093A6078093A50720935D070895CF933D
S1131B00DF93EB016091A5077091A607645F7F4F97
S1131B100E94110261E0CE010E94C909DF91CF91B8
S1131B2008950F931F93CF938B01C42F6091A50742
S1131B307091A607645F7F4F0E94F001CC2311F0DF
S1131B400FEF1FEF6C2FC8010E94C909CF911F919D
S1131B500F9108950F931F93CF93DF93DC01159694
S1131B60ED91FC911697C681D7818E01045F1F4FBA
S1131B70C8010E9442028091530781111CC00A507F
S1131B801109C8010E9442028E8990915D0798173D
S1131B9010F480935D0790E09C01220F331F220F05
S1131BA0331F220F331F820F931FB8018F57984F93
S1131BB00E94F00105C0B80184E797E00E94F0019B
S1131BC0E091A507F091A6079E898689891720F4DC
S1131BD081E080935A0701C080E0DF91CF911F918B
S1131BE00F91089520915907FC01208320915E07ED
S1131BF030915F07328321830895CF93DF930FB62B
S1131C00F8940F9220915E0730915F07DB014D91AC
S1131C105C914F3FBFEF5B07F1F0EC01E981FA8182
S1131C20A0915907B881BA1719F02E173F07A8F4E5
S1131C302E1B3F0B2417350748F4FB01421B530BA3
S1131C40518340830E94F20D80E008C0FB011182A1
S1131C50108281E003C080E001C081E00F900FBEDC
S1131C60DF91CF91089581E080935A070895809180
S1131C705C07882331F080915307882321F080E0AA
S1131C80089581E0089582E008950F931F93CF9300
S1131C90DF93FC01892B79F182A1815082A32689EB
S1131CA091A1291751F181112AC0EF018F010E5F13
S1131CB01F4FC8010E94420289A18E8B24E030E0AC
S1131CC0281B31093D872C8790915D07981710F4E4
S1131CD080935D0790E09C01220F331F220F331F76
S1131CE0220F331F820F931FB8018F57984F0E9402
S1131CF0F00181E005C080E003C080E001C080E025
S1131D00DF91CF911F910F910895FC01738362833A
S1131D10918780874617570790F0421B530B8485A1
S1131D20958548175907E0F4BF016E5F7F4F809196
S1131D30BF079091C0070E94110280E008954217E6
S1131D40530718F46217730768F4BF016E5F7F4F7F
S1131D508091C1079091C2070E94110280E008950A
S1131D6081E0089581E008950FB6F8940F92809170
S1131D70BD079091BE07892BE9F480EB97E00E94A0
S1131D80DE0187EA97E00E94DE0180EB97E0909302
S1131D90C2078093C10787EA97E09093C0078093B6
S1131DA0BF0740E065E08AE00E94EC079093BE071D
S1131DB08093BD070F900FBE0895EF92FF920F938B
S1131DC00E94B40E8091BD079091BE07892B91F0BB
S1131DD00F2EFBEBEF2EF7E0FF2EF02D03E020E0BB
S1131DE030E045E550E06DE271E087EB9FE00E9452
S1131DF05B0A01C080E00F91FF90EF9008950F936C
S1131E001F93CF93DF9300D000D01F92CDB7DEB7DE
S1131E10E091BD07F091BE07309771F1D901698354
S1131E205B834A839D838C836630ECF40E94370E77
S1131E30823061F420E0A801BE016F5F7F4F809182
S1131E40BD079091BE070E94190817C020E040E02A
S1131E5050E0BE016F5F7F4F8091BD079091BE0738
S1131E600E9419080AC020E0AD01BE016F5F7F4FD8
S1131E70CF010E94BA0801C080E00F900F900F902C
S1131E800F900F90DF91CF911F910F910895AF9212
S1131E90BF92CF92DF92EF92FF920F931F93CF9353
S1131EA0DF936C010E94A60B7C018091B90790918D
S1131EB0BA07E816F90608F048C030C00580F68174
S1131EC0E02DA080B180C681D7818E010E5F1F4FA7
S1131ED0C8010E944202E989FA89CE0109958E85DA
S1131EE08130E1F48C859D858A0D9B1DA816B90669
S1131EF060F49B838A83D987C887B8018091C1071E
S1131F009091C2070E94110209C000E010E020E095
S1131F1030E0A50160E0CE010E94FF0EE091C10710
S1131F20F091C20780818111C9CF8091BF07909140
S1131F30C0079093C2078093C107F093C007E09352
S1131F40BF0781E0F601808302C0F6011082F0929F
S1131F50BA07E092B907C701DF91CF911F910F91A2
S1131F60FF90EF90DF90CF90BF90AF900895CF9304
S1131F70DF9300D000D000D0CDB7DEB7CE010196FC
S1131F804C0144244394E12CF12C512CC82ED92C1F
S1131F90E091C107F091C2078081882309F4C2C08F
S1131FA00580F681E02DA080B1800E94A00BC401C1
S1131FB00E94470F8C018981811147C00A151B05B6
S1131FC098F10E946B0CE091C107F091C207058063
S1131FD0F681E02D66807780C30102960E9442025A
S1131FE0D3011E968C911E978130B1F41C966D918D
S1131FF07C911D976A0D7B1D9501A801C3010E9468
S1132000850E882349F00E2D1F2D2E2D3F2DA50161
S1132010652DC3010E94FF0ED3015196ED91FC91F1
S11320205297C301099571C0452DB501601B710B11
S11320308091BD079091BE070E948D090E946B0C90
S1132040811163C00E94070660C00E946B0C5DC0D2
S1132050898188230CF459C0AC80BD80F501828548
S11320609385892B21F0C50102960E944202CE017C
S113207006960E94470FE9810E2FEE0F110B220BDB
S1132080330B0A30110508F040C0F801EC5CFF4F37
S11320900C94A5122A813B81D5011C966D917C91EB
S11320A01D97620F731FAC01C5010E94850E882322
S11320B061F1D5015196ED91FC915297C5010995B5
S11320C0F5018685813009F54A815B818485958592
S11320D0480F591F0E2D1F2D2E2D3F2D652DC50187
S11320E00E94FF0E12C06A817B81D5011D967C93EC
S11320F06E931C97680F791F9C01AC01C5010E9467
S1132100850E03C0C5010E9478014E2D5F2D6C2DF4
S11321107D2D8091BD079091BE070E94F408811126
S113212097CF36CF0E94A00BC4010E94470F8C01A9
S1132130898181118ACFE091BF07F091C007808126
S1132140442D8111452DAE2CBF2C6FCF5058BB2789
S1132150AA270E94BE100C949D110E948F1138F082
S11321600E94961120F039F49F3F19F426F40C9440
S11321708C110EF4E095E7FB0C948611E92F0E9474
S1132180AE1158F3BA17620773078407950720F056
S113219079F4A6F50C94D0110EF4E0950B2EBA2F19
S11321A0A02D0B01B90190010C01CA01A001112459
S11321B0FF27591B99F0593F50F4503E68F11A1605
S11321C0F040A22F232F342F4427585FF3CF469596
S11321D037952795A795F0405395C9F77EF41F16B8
S11321E0BA0B620B730B840BBAF09150A1F0FF0F82
S11321F0BB1F661F771F881FC2F70EC0BA0F621F6E
S1132200731F841F48F4879577956795B795F7955D
S11322109E3F08F0B0CF9395880F08F09927EE0FF2
S11322209795879508950E941A116894B1110C949A
S1132230D11108950E94B61188F09F5798F0B92FD4
S11322409927B751B0F0E1F0660F771F881F991FE7
S11322501AF0BA95C9F714C0B13091F00E94D011A8
S1132260B1E008950C94D011672F782F8827B85FB8
S113227039F0B93FCCF3869577956795B395D9F73F
S11322803EF490958095709561957F4F8F4F9F4F49
S11322900895E89409C097FB3EF490958095709555
S11322A061957F4F8F4F9F4F9923A9F0F92F96E99E
S11322B0BB279395F695879577956795B795F11113
S11322C0F8CFFAF4BB0F11F460FF1BC06F5F7F4FB0
S11322D08F4F9F4F16C0882311F096E911C07723C2
S11322E021F09EE8872F762F05C0662371F096E8CB
S11322F0862F70E060E02AF09A95660F771F881F9A
S1132300DAF7880F9695879597F9089597F99F6757
S113231080E870E060E008959FEF80EC0895002469
S11323200A941616170618060906089500240A9436
S113233012161306140605060895092E0394000CBC
S113234011F4882352F0BB0F40F4BF2B11F460FF4B
S113235004C06F5F7F4F8F4F9F4F089557FD905874
S1132360440F551F59F05F3F71F04795880F97FB55
S1132370991F61F09F3F79F087950895121613060F
S11323801406551FF2CF4695F1DF08C0161617063E
S11323901806991FF1CF8695710561050894089573
S11323A0E894BB2766277727CB0197F908950E9405
S11323B0EA110C949D110E948F1138F00E9496111D
S11323C020F0952311F00C9486110C948C11112497
S11323D00C94D1110E94AE1170F3959FC1F3950F27
S11323E050E0551F629FF001729FBB27F00DB11D95
S11323F0639FAA27F00DB11DAA1F649F6627B00D25
S1132400A11D661F829F2227B00DA11D621F739F0D
S1132410B00DA11D621F839FA00D611D221F749F1B
S11324203327A00D611D231F849F600D211D822F62
S1132430762F6A2F11249F5750409AF0F1F0882389
S11324404AF0EE0FFF1FBB1F661F771F881F9150B6
S11324505040A9F79E3F510580F00C9486110C94CE
S1132460D1115F3FE4F3983ED4F386957795679551
S1132470B795F795E7959F5FC1F7FE2B880F911DE0
S11324809695879597F908950E94B611E8F09E37BE
S1132490E8F09639B8F49E3848F4672F782F8827E7
S11324A0985FF9CF86957795679593959539D0F38D
S11324B0B62FB1706B0F711D811D20F48795779530
S11324C0679593950C9468120C9483120C94D11113
S11324D0882371F4772321F09850872B762F07C037
S11324E0662311F499270DC09051862B70E060E0AB
S11324F02AF09A95660F771F881FDAF7880F96954A
S1132500879597F908959F3F31F0915020F487956E
S113251077956795B795880F911D9695879597F947
S1132520089597FB072E16F4009407D077FD09D081
S11325300E94AB1207FC05D03EF4909581959F4F05
S11325400895709561957F4F0895EE0FFF1F0590D4
S1132550F491E02D0994AA1BBB1B51E107C0AA1FEB
S1132560BB1FA617B70710F0A61BB70B881F991F30
S11325705A95A9F780959095BC01CD010895FB016A
S1132580DC0102C001900D9241505040D8F70895EB
S1132590DC0101C06D9341505040E0F70895FB0108
S11325A0DC010D900020E9F7119701900D920020B5
S11325B0E1F70895BB274A3031F4992322F4BDE2B0
S11325C0909581959F4F0C94E612BB27FB015527EC
S11325D0AA27880F991FAA1FA41710F0A41B83957C
S11325E05051B9F7A05DAA3308F0A95DA1930097F3
S11325F079F7B111B1931192CB010C94FF12DC0164
S1132600FC01672F71917723E1F7329704C07C9125
S11326106D9370836291AE17BF07C8F30895F89461
S1052620FFCFE6
S1132622F905416358203D2000000000207C20472A
S1132632795A203D20005461736B31005461736BED
S113264232005461736B340049444C4500546D723A
S109265220537663000032
S9030000FC
