:100000000C943E000C9485000C945B000C945B00F7
:100010000C945B000C945B000C945B000C945B00F4
:100020000C945B000C945B000C945B000C945B00E4
:100030000C945B000C945B000C9405070C945B0023
:100040000C945B000C945B000C945B000C945B00C4
:100050000C945B000C945B000C945B000C945B00B4
:100060000C945B000C945B007D107D107D10B8102B
:10007000A610B5107D107D10B810A61011241FBE5B
:10008000CFEFD8E0DEBFCDBF11E0A0E0B1E0E8E8FF
:10009000F6E202C005900D92AE35B107D9F727E020
:1000A000AEE5B1E001C01D92A23FB207E1F70E94A8
:1000B00001050C9442130C9400008F938FB78F931B
:1000C000F8948091EE078F5F8093EE078091EF07A1
:1000D0008F4F8093EF078091F0078F4F8093F00749
:1000E0008091F1078F4F8093F1078F918FBF8F9190
:1000F0000895539A1BB8E89AE9E6F0E080818160A0
:10010000808383E08093810008951F920F920FB641
:100110000F9211248F939F934A9B05C010928500E4
:100120001092840008C08091840090918500909383
:10013000E8078093E7079F918F910F900FBE0F9074
:100140001F9018951092E8071092E7075B9A25E335
:100150002A95F1F700005B988091E7079091E807F6
:10016000892BD1F38091E7079091E80784379E406F
:10017000F0F46091E7077091E80780E090E00E945A
:100180007C112DEB37E346E856E30E940A1220E08B
:1001900030E040E05FE30E940A1220E03CEF45E0DF
:1001A00057E40E940A120E944D11862F089589E299
:1001B00008950F931F93CF93DF93EC010E94D30B0D
:1001C00080915E0181111DC0E3E6F1E088E691E0D7
:1001D0009183808313821282EFE5F1E089EF95E04D
:1001E0009383828311821082A7E6B1E014969C93D8
:1001F0008E9313971296FC93EE93119781E0809360
:100200005E01209709F46BC09E012C5F3F4F23963F
:10021000C83FD54008F060C0E0916301F0916401EF
:10022000A3E6B1E002C0DF01FC0182819381821765
:10023000930720F4808191810097A9F7C1E0EF3501
:10024000FC0709F449C0CD91DC9111978E010C5F38
:100250001F4F808191818D939C9382819381821B1A
:10026000930B8930910510F1BF01620F731FDB0101
:1002700013969C938E9312973383228312964D91FB
:100280005C91139783E691E001C0CD01EC01A88158
:10029000B98112962D913C91139724173507A8F335
:1002A000EB01B983A883DC016D937C9380910001FD
:1002B0009091010122813381821B930B9093010164
:1002C000809300010E949E0C0115110559F40E94B3
:1002D000C70100E010E006C00E949E0CF8CF0E940B
:1002E0009E0CF5CFC801DF91CF911F910F9108951A
:1002F0000F931F93CF93DF93009741F1EC018C0193
:10030000045011090E94D30BF80142815381A3E6E6
:10031000B1E001C0DF01ED91FC91119722813381A1
:1003200024173507B8F32497F983E8830D931C93BA
:1003300020910001309101018A819B81820F931FDE
:1003400090930101809300010E949E0CDF91CF9158
:100350001F910F9108958FE380937E0080B7877F70
:1003600080BF80B7806880BF83B7817F83BF0FB6AF
:10037000F8940F9283B7816083BF85B7806685BF8D
:100380008F7D85BF0F900FBE889513BE0895259A67
:100390002D9A83ED90E30197F1F700C000001D9ABC
:1003A000F8CF259A2D9A2FE78AE196E021508040D8
:1003B0009040E1F700C000001D9AF5CFFC010396C4
:1003C000928381832FEF3FEF34832383968385834A
:1003D0009087878310820895FC0111861086089506
:1003E000CF93DF939C01FB01DC011196CD91DC9151
:1003F0001297D383C2838C819D81958384838C8162
:100400009D81DC0113967C936E9312977D836C83A0
:1004100031872087F90180818F5F8083DF91CF91C1
:100420000895CF93DF93EB01488159814F3F2FEF20
:10043000520721F4FC01A781B0850DC0DC011396A1
:1004400001C0DF011296ED91FC911397208131815B
:1004500042175307B0F71296ED91FC911397FB8367
:10046000EA83D583C483BD83AC831396DC93CE9398
:10047000129799878887FC0120812F5F2083DF9165
:10048000CF910895CF93DF93FC01A085B185C28100
:10049000D381848195819D838C83C481D581828120
:1004A00093819B838A8311968D919C911297E81773
:1004B000F90731F48481958112969C938E9311975C
:1004C000118610868C9181508C938C91DF91CF9105
:1004D0000895D8E1C0E68CE291E00E941D0D809164
:1004E000E9078A30C0F7D5B9CBB92FEF81EF9BE28E
:1004F000215080409040E1F700C000001092610759
:10050000109262071092630710926407E4CF109272
:10051000C50088E68093C400E1ECF0E088E18083C8
:1005200080818860808380818061808386E0809381
:10053000C2000895E0ECF0E0908195FFFDCF80933C
:10054000C6000895CF93DF93EC018881882331F0B2
:1005500021960E949A0289918111FBCFDF91CF9160
:100560000895CF93DF93880FECEBF0E0A9EBB0E0B8
:10057000CBEBD0E034E854EA74E9108250839081E8
:10058000992354F09FEF9150208122231CF0911168
:10059000FACFF3CF992389F39C91987F983011F08B
:1005A000903159F7888330839081992354F09FEFDD
:1005B0009150208122231CF09111FACFDECF992394
:1005C000E1F29C91987F983111F09034B1F66883F4
:1005D00030839081992354F09FEF91502081222302
:1005E0001CF09111FACFC9CF992339F29C91987FD1
:1005F000983219F648833083908199235CF09FEFFD
:100600009150208122231CF09111FACFB6CF99236B
:1006100009F4B3CF9C91987F983209F0AECF7083E4
:10062000908194FD0BC09FEF9150208124FD03C069
:100630009111FACFA2CF992309F49FCFDF91CF91E7
:100640000895CF92DF92EF92FF920F931F93CF9373
:10065000DF93880FCC24C394C80E30E1ECEBF0E0BC
:1006600014EAF12C00E0C9EBD0E0ABEBB0E074E8A9
:100670000F2EF4ECDF2EF02D0F2EF4E9EF2EF02DDF
:100680001083908199235CF09FEF91502081222369
:100690001CF09111FACF94C0992309F498C0988165
:1006A000987F983019F0903109F091C08C93708345
:1006B000908199235CF09FEF9150208122231CF0C0
:1006C0009111FACF7DC0992309F481C09881987F58
:1006D000983119F0903409F07AC06C93708390814E
:1006E00099235CF09FEF9150208122231CF09111FF
:1006F000FACF66C0992309F46AC09881987F98322E
:1007000009F065C01083908199235CF09FEF9150B0
:10071000208122231CF09111FACF52C0992309F4B1
:1007200056C09881987F983019F0903109F04FC0E9
:10073000CC927083908199235CF09FEF915020813F
:1007400022231CF09111FACF3BC0992309F43FC03A
:100750009881987F983111F09034C9F5D0829081BA
:10076000992344F09FEF91502081222324F091118E
:10077000FACF01C09FEF4C9150E0542F44279923AA
:10078000F9F070839081992344F09FEF915020817C
:10079000222324F09111FACF01C09FEF2C91422B1C
:1007A000992371F0E082908194FD15C09FEF9150E4
:1007B000208124FD03C09111FACF02C091110BC01A
:1007C0001082315009F05CCF40E050E004C04F2D62
:1007D000502F90E0F3CFCA01DF91CF911F910F917D
:1007E000FF90EF90DF90CF900895CF93DF93CDB738
:1007F000DEB760970FB6F894DEBF0FBECDBF8E0197
:100800000F5F1F4F0F2EF3E03F2EF02D4E0188E0BB
:10081000880E911C0F2EF6E2AF2EB12CF02D0F2E6C
:10082000F6E2CF2EF0E2DF2EF02D0F2EFAE0EF2EC3
:10083000F12CF02D6BE388E60E9421034AE0BE0113
:10084000655F7F4F0E940D1387E0E2E0F1E0D80181
:1008500001900D928A95E1F7F401832D11928A950A
:10086000E9F7C8010E94A202CE010B960E94A202E3
:100870006DE388E60E9421034AE0BE01655F7F4F79
:100880000E940D138AE0ECE0F1E0D80101900D9296
:100890008A95E1F7C8010E94A202CE010B960E9440
:1008A000A2026FE388E60E9421034AE0BE01655F71
:1008B0007F4F0E940D138AE0E6E1F1E0D80101903C
:1008C0000D928A95E1F7C8010E94A202CE010B9613
:1008D0000E94A20263E488E60E9421034AE0BE016E
:1008E000655F7F4F0E940D138AE0E0E2F1E0D801DE
:1008F00001900D928A95E1F7C8010E94A202CE01F3
:100900000B960E94A20265E488E60E9421034AE059
:10091000BE01655F7F4F0E940D138AE0EAE2F1E0BD
:10092000D80101900D928A95E1F7C8010E94A202B8
:10093000CE010B960E94A20267E488E60E94210382
:1009400064E670E00E94C412072E000C880B990B1D
:100950000E947E110E9477122B013C016091610779
:100960007091620780916307909164070E947E11E5
:10097000A30192010E94DA100E944611DC01CB0112
:100980008093610790936207A0936307B093640715
:100990004AE0BE01655F7F4F0E940D138AE0E4E3E9
:1009A000F1E0D80101900D928A95E1F7C8010E940B
:1009B000A202CE010B960E94A2020E94A200809386
:1009C000E9074AE0BE01655F7F4F90E00E940D138A
:1009D000BA82A982BE01655F7F4FC8010E940213DF
:1009E000F80101900020E9F73197D182C082F382AB
:1009F000E282C8010E94A20288EC90E00E941D0DD4
:100A000019CF0E9479000E9487028CE08093B80081
:100A100047E069E188E60E94B10248E16BE188E6BF
:100A20000E94B10241E06BE688E60E94B102E12C2F
:100A3000F12C01E020E030E045E550E06EE371E0AC
:100A400085EF93E00E948E0A20E030E045E550E01B
:100A500064E471E089E895E00E948E0A02E020E0FB
:100A600030E045E550E06AE471E089E692E00E94FA
:100A70008E0A78940E94A50BFFCF88E185B980E6A5
:100A80008BB981E090E00E941D0D80E185B980E284
:100A90008BB983E090E00E941D0D089584E185B933
:100AA00080EA8BB981E090E00E941D0D80E185B95C
:100AB00080E28BB983E090E00E941D0D0895809143
:100AC000610790916207A0916307B0916407009756
:100AD000A105B10589F484E185B980E68BB981E08F
:100AE00090E00E941D0D80E185B980E28BB981E024
:100AF00090E00E941D0D0895BB231CF40E943D054B
:100B00000895181619061A061B0614F40E944E05BD
:100B100008950E945F05FDCF31E1FC0130833197DC
:100B200022E220833197A3E3A0833197608331973A
:100B3000708331971082319760E86083319710821B
:100B4000319762E06083319763E06083319764E0BE
:100B50006083319765E06083319766E06083319709
:100B600067E06083319768E06083319769E0608374
:100B7000319760E1608331973083319732E1308380
:100B8000319733E13083319734E13083319735E168
:100B90003083319736E13083319737E130833197B5
:100BA00038E13083319739E13083319730E2308357
:100BB000319731E2308331972083319723E22083CC
:100BC0003197408331975083319726E220833197C4
:100BD00027E22083319728E22083319729E220837E
:100BE000319720E32083319721E32083869708956E
:100BF00081E194E09093EB078093EA079093ED07EF
:100C00008093EC078EE087BD82E084BD85E085BDE2
:100C1000EEE6F0E0808182608083A091C907B09108
:100C2000CA07CD91CDBFDD91DEBFFF91EF91DF917E
:100C3000CF91BF91AF919F918F917F916F915F9174
:100C40004F913F912F911F910F91FF90EF90DF9067
:100C5000CF90BF90AF909F908F907F906F905F905C
:100C60004F903F902F901F900F900FBE0F900895C0
:100C700081E008950F920FB6F8940F921F921124FD
:100C80002F923F924F925F926F927F928F929F929C
:100C9000AF92BF92CF92DF92EF92FF920F931F938A
:100CA0002F933F934F935F936F937F938F939F9374
:100CB000AF93BF93CF93DF93EF93FF93A091C907B7
:100CC000B091CA070DB60D920EB60D920E94310D6D
:100CD000A091C907B091CA07CD91CDBFDD91DEBF0C
:100CE000FF91EF91DF91CF91BF91AF919F918F9144
:100CF0007F916F915F914F913F912F911F910F9134
:100D0000FF90EF90DF90CF90BF90AF909F908F902B
:100D10007F906F905F904F903F902F901F900F901B
:100D20000FBE0F9008950F920FB6F8940F921F9276
:100D300011242F923F924F925F926F927F928F92E7
:100D40009F92AF92BF92CF92DF92EF92FF920F935A
:100D50001F932F933F934F935F936F937F938F9343
:100D60009F93AF93BF93CF93DF93EF93FF93A091A4
:100D7000C907B091CA070DB60D920EB60D9213BEFB
:100D80008091EC079091ED0701979093ED07809388
:100D9000EC07892B51F40E945D008091EA07909145
:100DA000EB079093ED078093EC070E94E30B811112
:100DB0000E94310DA091C907B091CA07CD91CDBF56
:100DC000DD91DEBFFF91EF91DF91CF91BF91AF91A8
:100DD0009F918F917F916F915F914F913F912F9153
:100DE0001F910F91FF90EF90DF90CF90BF90AF9049
:100DF0009F908F907F906F905F904F903F902F903B
:100E00001F900F900FBE0F9008950E9493061895A3
:100E10000FB6F8940F92FC01928D0F900FBE81E0F7
:100E2000911180E008950F931F93CF93DF93EC010E
:100E3000042F1A8D4C8D41110CC088819981892B0A
:100E400009F042C08C819D810E94780E1D821C8217
:100E500042C0011117C050E08A819B810E94F212AA
:100E60002C8D8A819B81820F911D9B838A832C818B
:100E70003D818217930750F1888199819B838A83F2
:100E800080E029C050E08E819F810E94F2128C8DFB
:100E900090E09195819591092E813F81280F391F0E
:100EA0003F832E83488159812417350730F42C81E4
:100EB0003D81820F931F9F838E83023049F411235B
:100EC00049F0115080E007C080E005C080E003C019
:100ED00080E001C080E01F5F1A8FDF91CF911F91EA
:100EE0000F910895FC01448D4423A9F050E0268120
:100EF0003781240F351F37832683848195812817F6
:100F0000390720F08081918197838683CB016681A8
:100F100077810E94F2120895EF92FF920F931F9330
:100F2000CF938C010FB6F8940F92FC01C68D1C165E
:100F3000ACF48189811106C011C0F8018189811149
:100F400005C00CC07801F1E1EF0EF11CC7010E9451
:100F5000DD0D81110E94660EC15079F78FEFF80107
:100F6000868F0F900FBE0FB6F8940F92C58D1C168A
:100F7000ACF48085811106C011C0F8018085811113
:100F800005C00CC07801F8E0EF0EF11CC7010E940B
:100F9000DD0D81110E94660EC15079F78FEFF801C7
:100FA000858F0F900FBECF911F910F91FF90EF9003
:100FB0000895CF93DF93EC010FB6F8940F92E88178
:100FC000F9818B8D2C8D90E030E0829FA001839F72
:100FD000500D929F500D11244E0F5F1F5D834C8367
:100FE0001A8EFB83EA830197829FA001839F500D95
:100FF000929F500D1124CF01840F951F9F838E83E4
:101000008FEF8D8F8E8F61110CC08885882389F0BA
:10101000CE0108960E94DD0D882359F00E943A0601
:1010200008C0CE0108960E94DE01CE0141960E94C2
:10103000DE010F900FBE81E0DF91CF9108950F93F5
:101040001F93CF93DF93082F162F6623C1F0869F3F
:10105000C00111244F960E94D900EC01009741F481
:1010600015C00B8F1C8F61E0CE010E94D9070EC006
:101070004F9699838883F5CFD983C883F2CF8FE1C8
:1010800090E00E94D900EC01892BB1F7CE01DF91ED
:10109000CF911F910F9108959F92AF92BF92CF92DF
:1010A000DF92EF92FF920F931F93CF93DF9300D0C5
:1010B00000D01F92CDB7DEB78C016B015D834C83EE
:1010C000A22EB12C992493947C0188E0E80EF11CA7
:1010D0000FB6F8940F92F801928D838D981718F03F
:1010E000F2E0AF1219C04A2DB601C8010E941307E1
:1010F000F8019189992349F0C80141960E94DD0DBC
:10110000882331F00E943A0603C081110E943A06FA
:101110000F900FBE81E050C08C819D81892B21F4FE
:101120000F900FBE80E048C0B11005C0CE010196FF
:101130000E94250EB92C0F900FBE0E94D30B0FB644
:10114000F8940F92F801858D8F3F09F4158EF80100
:10115000868D8F3F09F4168E0F900FBEBE016C5F17
:101160007F4FCE0101960E94300E81111FC00FB635
:10117000F8940F92F801928D838D0F900FBE981303
:101180000FC06C817D81C7010E94B20DC8010E9411
:101190008C070E949E0C81119BCF0E943A0698CF2B
:1011A000C8010E948C070E949E0C92CFC8010E9429
:1011B0008C070E949E0C80E00F900F900F900F9074
:1011C0000F90DF91CF911F910F91FF90EF90DF90E3
:1011D000CF90BF90AF909F900895EF92FF920F93A2
:1011E0001F93CF93DF938A01FC01528D338D5317E8
:1011F00010F02230F1F4422F7801EC011E8D0E9494
:1012000013071F3F81F489898823A9F0CE014196F5
:101210000E94DD0D882389F0E114F10481F081E062
:10122000F70180830DC0FF24F394F10EFE8E81E060
:1012300007C080E005C081E003C081E001C081E01B
:10124000DF91CF911F910F91FF90EF9008959F92A2
:10125000AF92BF92CF92DF92EF92FF920F931F93C4
:10126000CF93DF9300D000D01F92CDB7DEB78C01B3
:101270005B015D834C83E12C992493946C0181E1A3
:10128000C80ED11C0FB6F8940F92F801F28CFF2013
:10129000A9F0B501C8010E947207FA94F801F28E14
:1012A0008085882339F0C80108960E94DD0D8111E0
:1012B0000E943A060F900FBE81E051C08C819D8143
:1012C000892B21F40F900FBE80E049C0E11005C0CA
:1012D000CE0101960E94250EE92C0F900FBE0E94B0
:1012E000D30B0FB6F8940F92F801858D8F3F09F458
:1012F000158EF801868D8F3F09F4168E0F900FBE64
:10130000BE016C5F7F4FCE0101960E94300E8111AD
:101310001AC0C8010E940807882379F06C817D817A
:10132000C6010E94B20DC8010E948C070E949E0C4B
:101330008111A8CF0E943A06A5CFC8010E948C0750
:101340000E949E0C9FCFC8010E948C070E949E0C99
:10135000C8010E940807882309F494CF80E00F9009
:101360000F900F900F900F90DF91CF911F910F91E1
:10137000FF90EF90DF90CF90BF90AF909F90089537
:10138000CF93DF93EC010FB6F8940F928D8D8F3FC2
:1013900009F41D8E8E8D8F3F09F41E8E0F900FBEA7
:1013A0008A8D811104C0CE0141960E94C40DCE01E8
:1013B0000E948C07DF91CF910895E091A307F091EF
:1013C000A4078081811107C08FEF9FEF90937B0767
:1013D00080937A070895E091A307F091A407058010
:1013E000F681E02D0680F781E02D82819381909334
:1013F0007B0780937A070895FF920F931F93CF93F3
:10140000DF93EC01F62E0091820710918307809103
:10141000C9079091CA0702960E944202CF3F8FEF00
:10142000D80769F4FF2059F06091C9077091CA0785
:101430006E5F7F4F85E897E00E94F0012FC0C00FDC
:10144000D11FE091C907F091CA07D383C283C017A7
:10145000D10768F46091C9077091CA078091A1070C
:101460009091A2076E5F7F4F0E94110217C060919A
:10147000C9077091CA078091A3079091A4076E5F76
:101480007F4F0E94110280917A0790917B07C817C5
:10149000D90720F4D0937B07C0937A07DF91CF91CF
:1014A0001F910F91FF9008950FE817E00F2EF5EAB6
:1014B000EF2EF7E0FF2EF02D80918E07882329F183
:1014C0000FB6F8940F92D8011596ED91FC911697EE
:1014D000C681D781CE0102960E9442028091840784
:1014E00081508093840780918E07815080938E076E
:1014F0000F900FBE8F89988D0E947801CE010E94B7
:10150000780180918E078111DBCFF70180818230D5
:1015100010F00E943A060E94AB01CECF4F925F922C
:101520006F927F928F929F92AF92BF92CF92DF92F3
:10153000EF92FF920F93CF93DF934C016B015A010F
:101540002901CA010E94D9003C01892B09F4ECC091
:1015500088E290E00E94D900EC01892BB1F0788EEE
:101560006F8AA50165EA70E0C3010E94FB1281E069
:10157000A81AB1088F89988DA80EB91ED6018C9132
:10158000898F8C91811105C018C0C3010E94780118
:10159000CBC0AE01465E5F4FF6013196B8E0CB0E90
:1015A000D11CCF012191DA012D93AD01DC018C9189
:1015B000882319F0EC15FD05A1F718A2043008F0F6
:1015C00003E00E8B09A31AA26E01B2E0CB0ED11C70
:1015D000C6010E94EC01CE010C960E94EC01D98755
:1015E000C88784E090E0801B91099D878C87DB8B06
:1015F000CA8B1BA21CA21DA21EA21FA2A201B40183
:10160000C5010E948C0599838883E114F10419F0C7
:10161000F701D183C0830FB6F8940F9280918407AD
:101620008F5F809384078091C9079091CA07892BA7
:10163000D1F5D093CA07C093C90780918407813040
:1016400009F041C085EA97E00E94DE018EEA97E04A
:101650000E94DE0187EB97E00E94DE0180EC97E0BC
:101660000E94DE018EE697E00E94DE0185E697E0AB
:101670000E94DE0188E997E00E94DE018FE897E092
:101680000E94DE0185E897E00E94DE018EE697E089
:101690009093A4078093A30785E697E09093A20711
:1016A0008093A10710C08091800781110CC0E09148
:1016B000C907F091CA0796898E89891720F0D093BF
:1016C000CA07C093C90780917C078F5F80937C070E
:1016D0008E8990918107981710F48093810790E08C
:1016E0009C01220F331F220F331F220F331F820F43
:1016F000931FB6018B55984F0E94F0010F900FBEBB
:1017000080918007882361F0E091C907F091CA07B2
:1017100096898E89981730F40E943A0681E005C0B8
:1017200081E003C081E001C08FEFDF91CF910F9185
:10173000FF90EF90DF90CF90BF90AF909F908F90F1
:101740007F906F905F904F900895EF92FF920F936C
:101750000F2EF8E7EF2EF7E0FF2EF02D00E020E04F
:1017600030E045E550E060E571E084E59AE00E94F4
:101770008E0A8130A1F40E94100F813081F4F89418
:101780008FEF9FEF90937B0780937A0781E08093A0
:10179000800710928307109282070E94F8050F912C
:1017A000FF90EF900895809177078F5F8093770780
:1017B00008950FB6F8940F92809182079091830755
:1017C0000F900FBE0895CF92DF92EF92FF920F938A
:1017D0001F93CF93DF9380917707811199C0E09099
:1017E0008207F09083078FEFE81AF80AF0928307D8
:1017F000E0928207E114F104B9F48091A30790917B
:10180000A4072091A1073091A2073093A407209349
:10181000A3079093A2078093A10780917D078F5F14
:1018200080937D070E94DD0980917A0790917B0764
:10183000E816F90610F4D12C53C0D12CCC24C39453
:10184000E091A307F091A4078081811107C08FEF79
:101850009FEF90937B0780937A0742C0E091A307A4
:10186000F091A4070580F681E02DC681D7818A8199
:101870009B81E816F90628F490937B0780937A07FA
:101880002FC08E010E5F1F4FC8010E9442028C893B
:101890009D89892B21F0CE010C960E9442028E89EF
:1018A00090918107981710F48093810790E09C0134
:1018B000220F331F220F331F220F331F820F931F5C
:1018C000B8018B55984F0E94F001E091C907F09143
:1018D000CA079E898689981708F4B2CFDC2CB0CF4E
:1018E000E091C907F091CA07868990E0FC01EE0FEC
:1018F000FF1FEE0FFF1FEE0FFF1F8E0F9F1FFC013C
:10190000EB55F84F8081823048F0DD24D39406C037
:1019100080917F078F5F80937F07D12C80917E0716
:10192000882311F0DD24D3948D2DDF91CF911F9169
:101930000F91FF90EF90DF90CF900895DF92EF929C
:10194000FF920F931F93CF93DF930FB6F8940F92EC
:101950008091770781508093770780917707811175
:101960005FC080918407811133C05DC0D701159697
:10197000ED91FC911697C681D781CE010C960E94FD
:1019800042028E010E5F1F4FC8010E9442028E89E3
:1019900090918107981710F48093810790E09C0143
:1019A000220F331F220F331F220F331F820F931F6B
:1019B000B8018B55984F0E94F001E091C907F09152
:1019C000CA079E898689981768F0D0927E070AC058
:1019D000C0E0D0E00F2EF8E9EF2EF7E0FF2EF02D5B
:1019E000DD24D394F70180818111C0CFCD2B11F07C
:1019F0000E94DD09C0917F07CC2351F0D1E00E9405
:101A0000E30B8111D0937E07C150C9F710927F0775
:101A100080917E07882331F00E943A0681E003C05E
:101A200080E001C080E00F900FBEDF91CF911F9149
:101A30000F91FF90EF90DF900895CF93DF93EC012B
:101A4000892B51F00E94D30B60E0CE010E94FC096B
:101A50000E949E0C811102C00E943A06DF91CF9134
:101A6000089580917707882321F081E080937E0795
:101A7000089510927E07A091C907B091CA07E0911E
:101A8000C907F091CA072D913C918789908D8217E3
:101A9000930760F06091C9077091CA078091C907E8
:101AA0009091CA07675E7F4F0E94D1012091810704
:101AB000822F90E0FC01EE0FFF1FEE0FFF1FEE0FD5
:101AC000FF1FE80FF91FEB55F84F3081311111C09E
:101AD0002150822F90E0FC01EE0FFF1FEE0FFF1F41
:101AE000EE0FFF1FE80FF91FEB55F84F308133233E
:101AF00079F3AC01440F551F440F551F440F551F78
:101B0000480F591FDA01AB55B84F1196ED91FC9172
:101B100012970280F381E02D1296FC93EE931197B9
:101B20004855584FE417F50729F442815381FD01C8
:101B300052834183FC01EE0FFF1FEE0FFF1FEE0FDC
:101B4000FF1F8E0F9F1FFC01EB55F84F0180F281A4
:101B5000E02D868197819093CA078093C9072093CF
:101B600081070895CF93DF93EB016091C9077091CE
:101B7000CA07645F7F4F0E94110261E0CE010E949C
:101B8000FC09DF91CF9108950F931F93CF938B01A1
:101B9000C42F6091C9077091CA07645F7F4F0E948C
:101BA000F001CC2311F00FEF1FEF6C2FC8010E9442
:101BB000FC09CF911F910F9108950F931F93CF931D
:101BC000DF93DC011596ED91FC911697C681D781C4
:101BD0008E01045F1F4FC8010E9442028091770767
:101BE00081111CC00A501109C8010E9442028E894D
:101BF00090918107981710F48093810790E09C01E1
:101C0000220F331F220F331F220F331F820F931F08
:101C1000B8018B55984F0E94F00105C0B80188E9C2
:101C200097E00E94F001E091C907F091CA079E89F0
:101C30008689891720F481E080937E0701C080E0C7
:101C4000DF91CF911F910F91089520917D07FC01A5
:101C50002083209182073091830732832183089566
:101C6000CF93DF930FB6F8940F92209182073091B3
:101C70008307DB014D915C914F3FBFEF5B07F1F0B4
:101C8000EC01E981FA81A0917D07B881BA1719F0BA
:101C90002E173F07A8F42E1B3F0B2417350748F4D7
:101CA000FB01421B530B518340830E94250E80E0B1
:101CB00008C0FB011182108281E003C080E001C0F6
:101CC00081E00F900FBEDF91CF91089581E0809366
:101CD0007E07089580918007882331F080917707EF
:101CE000882321F080E0089581E0089582E008953E
:101CF0000F931F93CF93DF93FC01892B79F182A17E
:101D0000815082A3268991A1291751F181112AC0FE
:101D1000EF018F010E5F1F4FC8010E94420289A18F
:101D20008E8B24E030E0281B31093D872C87909171
:101D30008107981710F48093810790E09C01220F8F
:101D4000331F220F331F220F331F820F931FB8013F
:101D50008B55984F0E94F00181E005C080E003C0E0
:101D600080E001C080E0DF91CF911F910F91089535
:101D7000FC0173836283918780874617570790F031
:101D8000421B530B8485958548175907E0F4BF0122
:101D90006E5F7F4F8091E3079091E4070E941102EC
:101DA00080E008954217530718F46217730768F428
:101DB000BF016E5F7F4F8091E5079091E6070E941B
:101DC000110280E0089581E0089581E008950FB642
:101DD000F8940F928091E1079091E207892BE9F442
:101DE00084ED97E00E94DE018BEC97E00E94DE011B
:101DF00084ED97E09093E6078093E5078BEC97E0FE
:101E00009093E4078093E30740E065E08AE00E9456
:101E10001F089093E2078093E1070F900FBE08958B
:101E2000EF92FF920F930E94E70E8091E10790914D
:101E3000E207892B91F00F2EFFEDEF2EF7E0FF2E3A
:101E4000F02D03E020E030E045E550E065E571E08D
:101E50008AEE9FE00E948E0A01C080E00F91FF9001
:101E6000EF9008950F931F93CF93DF9300D000D08E
:101E70001F92CDB7DEB7E091E107F091E20730970E
:101E800071F1D90169835B834A839D838C836630BA
:101E9000ECF40E946A0E823061F420E0A801BE01D9
:101EA0006F5F7F4F8091E1079091E2070E944C089D
:101EB00017C020E040E050E0BE016F5F7F4F80918F
:101EC000E1079091E2070E944C080AC020E0AD01B2
:101ED000BE016F5F7F4FCF010E94ED0801C080E01F
:101EE0000F900F900F900F900F90DF91CF911F9157
:101EF0000F910895AF92BF92CF92DF92EF92FF922F
:101F00000F931F93CF93DF936C010E94D90B7C0139
:101F10008091DD079091DE07E816F90608F048C0C9
:101F200030C00580F681E02DA080B180C681D781C8
:101F30008E010E5F1F4FC8010E944202E989FA8993
:101F4000CE0109958E858130E1F48C859D858A0DC1
:101F50009B1DA816B90660F49B838A83D987C8871E
:101F6000B8018091E5079091E6070E94110209C02F
:101F700000E010E020E030E0A50160E0CE010E942A
:101F8000320FE091E507F091E60780818111C9CF1A
:101F90008091E3079091E4079093E6078093E5072B
:101FA000F093E407E093E30781E0F601808302C049
:101FB000F6011082F092DE07E092DD07C701DF91A3
:101FC000CF911F910F91FF90EF90DF90CF90BF9036
:101FD000AF900895CF93DF9300D000D000D0CDB75D
:101FE000DEB7CE0101964C0144244394E12CF12C40
:101FF000512CC82ED92CE091E507F091E60780819D
:10200000882309F4C2C00580F681E02DA080B1804C
:102010000E94D30BC4010E947A0F8C018981811127
:1020200047C00A151B0598F10E949E0CE091E50738
:10203000F091E6070580F681E02D66807780C30188
:1020400002960E944202D3011E968C911E97813007
:10205000B1F41C966D917C911D976A0D7B1D9501C5
:10206000A801C3010E94B80E882349F00E2D1F2D30
:102070002E2D3F2DA501652DC3010E94320FD301E6
:102080005196ED91FC915297C301099571C0452D70
:10209000B501601B710B8091E1079091E2070E94EE
:1020A000C0090E949E0C811163C00E943A0660C064
:1020B0000E949E0C5DC0898188230CF459C0AC80BD
:1020C000BD80F50182859385892B21F0C50102969B
:1020D0000E944202CE0106960E947A0FE9810E2FDD
:1020E000EE0F110B220B330B0A30110508F040C024
:1020F000F801EC5CFF4F0C94D8122A813B81D5018A
:102100001C966D917C911D97620F731FAC01C501E8
:102110000E94B80E882361F1D5015196ED91FC9192
:102120005297C5010995F5018685813009F54A81E7
:102130005B8184859585480F591F0E2D1F2D2E2DEF
:102140003F2D652DC5010E94320F12C06A817B812F
:10215000D5011D967C936E931C97680F791F9C0187
:10216000AC01C5010E94B80E03C0C5010E947801F0
:102170004E2D5F2D6C2D7D2D8091E1079091E20712
:102180000E942709811197CF36CF0E94D30BC4013B
:102190000E947A0F8C01898181118ACFE091E30737
:1021A000F091E4078081442D8111452DAE2CBF2C88
:1021B0006FCF5058BB27AA270E94F1100C94D01162
:1021C0000E94C21138F00E94C91120F039F49F3FDB
:1021D00019F426F40C94BF110EF4E095E7FB0C946F
:1021E000B911E92F0E94E11158F3BA17620773077A
:1021F0008407950720F079F4A6F50C9403120EF4E9
:10220000E0950B2EBA2FA02D0B01B90190010C0106
:10221000CA01A0011124FF27591B99F0593F50F41E
:10222000503E68F11A16F040A22F232F342F442776
:10223000585FF3CF469537952795A795F04053956E
:10224000C9F77EF41F16BA0B620B730B840BBAF03E
:102250009150A1F0FF0FBB1F661F771F881FC2F7A9
:102260000EC0BA0F621F731F841F48F487957795BD
:102270006795B795F7959E3F08F0B0CF9395880F77
:1022800008F09927EE0F9795879508950E944D11B4
:102290006894B1110C94041208950E94E91188F019
:1022A0009F5798F0B92F9927B751B0F0E1F0660F1A
:1022B000771F881F991F1AF0BA95C9F714C0B1305B
:1022C00091F00E940312B1E008950C940312672F5D
:1022D000782F8827B85F39F0B93FCCF3869577958A
:1022E0006795B395D9F73EF4909580957095619573
:1022F0007F4F8F4F9F4F0895E89409C097FB3EF49E
:1023000090958095709561957F4F8F4F9F4F992342
:10231000A9F0F92F96E9BB279395F69587957795C0
:102320006795B795F111F8CFFAF4BB0F11F460FF80
:102330001BC06F5F7F4F8F4F9F4F16C0882311F0D8
:1023400096E911C0772321F09EE8872F762F05C0EC
:10235000662371F096E8862F70E060E02AF09A9587
:10236000660F771F881FDAF7880F9695879597F97C
:10237000089597F99F6780E870E060E008959FEF07
:1023800080EC089500240A9416161706180609060C
:10239000089500240A9412161306140605060895DB
:1023A000092E0394000C11F4882352F0BB0F40F463
:1023B000BF2B11F460FF04C06F5F7F4F8F4F9F4FA3
:1023C000089557FD9058440F551F59F05F3F71F025
:1023D0004795880F97FB991F61F09F3F79F087958C
:1023E0000895121613061406551FF2CF4695F1DF15
:1023F00008C0161617061806991FF1CF86957105A5
:10240000610508940895E894BB2766277727CB01D8
:1024100097F908950E941D120C94D0110E94C211C8
:1024200038F00E94C91120F0952311F00C94B911D5
:102430000C94BF1111240C9404120E94E11170F34A
:10244000959FC1F3950F50E0551F629FF001729F59
:10245000BB27F00DB11D639FAA27F00DB11DAA1F68
:10246000649F6627B00DA11D661F829F2227B00DB5
:10247000A11D621F739FB00DA11D621F839FA00D40
:10248000611D221F749F3327A00D611D231F849F90
:10249000600D211D822F762F6A2F11249F575040E7
:1024A0009AF0F1F088234AF0EE0FFF1FBB1F661F62
:1024B000771F881F91505040A9F79E3F510580F02B
:1024C0000C94B9110C9404125F3FE4F3983ED4F3DA
:1024D000869577956795B795F795E7959F5FC1F7CF
:1024E000FE2B880F911D9695879597F908950E9468
:1024F000E911E8F09E37E8F09639B8F49E3848F4D0
:10250000672F782F8827985FF9CF869577956795FD
:1025100093959539D0F3B62FB1706B0F711D811D56
:1025200020F487957795679593950C949B120C945E
:10253000B6120C940412882371F4772321F098507A
:10254000872B762F07C0662311F499270DC0905171
:10255000862B70E060E02AF09A95660F771F881F3F
:10256000DAF7880F9695879597F908959F3F31F090
:10257000915020F4879577956795B795880F911DB1
:102580009695879597F9089597FB072E16F4009472
:1025900007D077FD09D00E94DE1207FC05D03EF47B
:1025A000909581959F4F0895709561957F4F0895FF
:1025B000EE0FFF1F0590F491E02D0994AA1BBB1BA1
:1025C00051E107C0AA1FBB1FA617B70710F0A61B33
:1025D000B70B881F991F5A95A9F780959095BC0154
:1025E000CD010895FB01DC0102C001900D92415024
:1025F0005040D8F70895DC0101C06D934150504020
:10260000E0F70895FB01DC010D900020E9F7119738
:1026100001900D920020E1F70895BB274A3031F474
:10262000992322F4BDE2909581959F4F0C94191344
:10263000BB27FB015527AA27880F991FAA1FA4179C
:1026400010F0A41B83955051B9F7A05DAA3308F090
:10265000A95DA193009779F7B111B1931192CB01C4
:102660000C943213DC01FC01672F71917723E1F7A1
:10267000329704C07C916D9370836291AE17BF074F
:08268000C8F30895F894FFCFA0
:10268800F905416358203D2000000000207C2041CE
:102698006359203D2000207C2041635A203D2000C2
:1026A800207C20477958203D2000207C20477959FC
:1026B800203D2000207C2047795A203D200054618D
:1026C800736B31005461736B32005461736B340067
:0E26D80049444C4500546D7220537663000057
:00000001FF
