S01200004672656552544F5331302E73726563E7
S11300000C943E000C9487000C945B000C945B00F1
S11300100C945B000C945B000C945B000C945B00F0
S11300200C945B000C945B000C945B000C945B00E0
S11300300C945B000C945B000C94CB070C945B0059
S11300400C945B000C945B000C945B000C945B00C0
S11300500C945B000C945B000C945B000C945B00B0
S11300600C945B000C945B00E411E411E4111F1286
S11300700D121C12E411E4111F120D1211241FBEE3
S1130080CFEFD8E0DEBFCDBF11E0A0E0B1E0ECE9F6
S1130090F9E202C005900D92A633B107D9F727E023
S11300A0A6E3B1E001C01D92A53EB207E1F70E94AC
S11300B039040C94CC140C9400008F938FB78F9355
S11300C0F8948091E1078F5F8093E1078091E207C4
S11300D08F4F8093E2078091E3078F4F8093E3076C
S11300E08091E4078F4F8093E4078F918FBF8F91A6
S11300F008958AB188618AB91BB8E89AE9E6F0E004
S113010080818160808383E08093810008951F92C1
S11301100F920FB60F9211248F939F934A9B05C0A1
S1130120109285001092840008C080918400909100
S113013085009093C6078093C5079F918F910F9078
S11301400FBE0F901F9018951092C6071092C50706
S11301505B9A25E32A95F1F700005B988091C50727
S11301609091C607892BD1F38091C5079091C6075A
S113017084379E40F0F46091C5077091C60780E013
S113018090E00E94E3122DEB37E346E856E30E9429
S1130190711320E030E040E05FE30E94711320E03F
S11301A03CEF45E057E40E9471130E94B412862F7D
S11301B0089589E208950F931F93CF93DF93EC0181
S11301C00E94E80C8091360181111DC0EBE3F1E03F
S11301D080E491E09183808313821282E7E3F1E06B
S11301E089EF95E09383828311821082AFE3B1E0BB
S11301F014969C938E9313971296FC93EE931197F7
S113020081E080933601209709F46BC09E012C5F36
S11302103F4F2396C83FD54008F060C0E0913B01B2
S1130220F0913C01ABE3B1E002C0DF01FC0182814B
S113023093818217930720F4808191810097A9F715
S1130240C1E0E733FC0709F449C0CD91DC91119773
S11302508E010C5F1F4F808191818D939C938281CD
S11302609381821B930B8930910510F1BF01620FBA
S1130270731FDB0113969C938E931297338322830F
S113028012964D915C9113978BE391E001C0CD01DF
S1130290EC01A881B98112962D913C9113972417F2
S11302A03507A8F3EB01B983A883DC016D937C9334
S11302B0809100019091010122813381821B930B73
S11302C090930101809300010E94B30D0115110563
S11302D059F40E94C90100E010E006C00E94B30D69
S11302E0F8CF0E94B30DF5CFC801DF91CF911F91D4
S11302F00F9108950F931F93CF93DF93009741F1CC
S1130300EC018C01045011090E94E80CF8014281AF
S11303105381ABE3B1E001C0DF01ED91FC91119792
S11303202281338124173507B8F32497F983E883AE
S11303300D931C9320910001309101018A819B81CE
S1130340820F931F90930101809300010E94B30DCB
S1130350DF91CF911F910F9108958FE380937E00D9
S113036080B7877F80BF80B7806880BF83B7817F75
S113037083BF0FB6F8940F9283B7816083BF85B7AC
S1130380806685BF8F7D85BF0F900FBE889513BE95
S11303900895259A2D9A83ED90E30197F1F700C013
S11303A000001D9AF8CF259A2D9A2FE78AE196E04E
S11303B0215080409040E1F700C000001D9AF5CF25
S11303C0FC010396928381832FEF3FEF34832383D1
S11303D0968385839087878310820895FC01118614
S11303E010860895CF93DF939C01FB01DC011196E5
S11303F0CD91DC911297D383C2838C819D819583A7
S113040084838C819D81DC0113967C936E93129777
S11304107D836C8331872087F90180818F5F80839E
S1130420DF91CF910895CF93DF93EB0148815981F8
S11304304F3F2FEF520721F4FC01A781B0850DC077
S1130440DC01139601C0DF011296ED91FC91139724
S11304502081318142175307B0F71296ED91FC9138
S11304601397FB83EA83D583C483BD83AC8313963C
S1130470DC93CE93129799878887FC0120812F5FA4
S11304802083DF91CF910895CF93DF93FC01A08562
S1130490B185C281D381848195819D838C83C481FC
S11304A0D581828193819B838A8311968D919C91BE
S11304B01297E817F90731F48481958112969C9379
S11304C08E931197118610868C9181508C938C9108
S11304D0DF91CF9108951092C50088E68093C400FF
S11304E0E1ECF0E088E18083808188608083808112
S11304F08061808386E08093C2000895E0ECF0E0A0
S1130500908195FFFDCF8093C60008958091C0002F
S113051088231CF48091C600089580E00895CF9349
S1130520DF93EC018881882331F021960E947E02BA
S113053089918111FBCFDF91CF910895CF93DF9300
S1130540880FECEBF0E0A9EBB0E0CBEBD0E034E8C3
S113055054EA74E9108250839081992354F09FEFF8
S11305609150208122231CF09111FACFF3CF9923CB
S113057089F39C91987F983011F0903159F78883D2
S113058030839081992354F09FEF9150208122234E
S11305901CF09111FACFDECF9923E1F29C91987F60
S11305A0983111F09034B1F66883308390819923A7
S11305B054F09FEF9150208122231CF09111FACF27
S11305C0C9CF992339F29C91987F983219F64883C0
S11305D03083908199235CF09FEF915020812223F6
S11305E01CF09111FACFB6CF992309F4B3CF9C91A3
S11305F0987F983209F0AECF7083908194FD0BC040
S11306009FEF9150208124FD03C09111FACFA2CF16
S1130610992309F49FCFDF91CF910895CF92DF9270
S1130620EF92FF920F931F93CF93DF93880FCC2405
S1130630C394C80E30E1ECEBF0E014EAF12C00E0D6
S1130640C9EBD0E0ABEBB0E074E80F2EF4ECDF2E96
S1130650F02D0F2EF4E9EF2EF02D108390819923C5
S11306605CF09FEF9150208122231CF09111FACF6E
S113067094C0992309F498C09881987F983019F010
S1130680903109F091C08C937083908199235CF030
S11306909FEF9150208122231CF09111FACF7DC04D
S11306A0992309F481C09881987F983119F0903486
S11306B009F07AC06C937083908199235CF09FEF6A
S11306C09150208122231CF09111FACF66C0992306
S11306D009F46AC09881987F983209F065C0108344
S11306E0908199235CF09FEF9150208122231CF08C
S11306F09111FACF52C0992309F456C09881987F7A
S1130700983019F0903109F04FC0CC9270839081E9
S113071099235CF09FEF9150208122231CF09111CA
S1130720FACF3BC0992309F43FC09881987F983150
S113073011F09034C9F5D0829081992344F09FEF51
S113074091502081222324F09111FACF01C09FEF10
S11307504C9150E0542F44279923F9F070839081F1
S1130760992344F09FEF91502081222324F091118A
S1130770FACF01C09FEF2C91422B992371F0E082B4
S1130780908194FD15C09FEF9150208124FD03C0FA
S11307909111FACF02C091110BC01082315009F0AF
S11307A05CCF40E050E004C04F2D502F90E0F3CFD9
S11307B0CA01DF91CF911F910F91FF90EF90DF90CD
S11307C0CF90089508E110E6CCE8D0E08CE291E007
S11307D00E94320E8091DA078431C0F70FB6F89484
S11307E00F9280913F0790914007A0914107B091EB
S11307F04207883A9E4DA105B10584F505B91BB998
S113080067E488E60E940E03BE010E944E14072E80
S1130810000C880B990B0E94E5120E94DE136B01F9
S11308207C0160913F07709140078091410790914E
S113083042070E94E512A70196010E9441120E94FC
S1130840AD1260933F0770934007809341079093E4
S11308504207683A7E4D8105910584F210923F0764
S11308601092400710924107109242070F900FBE5A
S1130870ADCF84E087B90E9479000E946B028CE0BE
S11308808093B80015B81BB847E069E188E60E9478
S11308909E0248E16BE188E60E949E0241E06BE61D
S11308A088E60E949E02E12CF12C01E020E030E079
S11308B045E550E06CE071E086E895E00E94540B59
S11308C00F2EF8EDEF2EF7E0FF2EF02D20E030E0B4
S11308D045E550E062E171E081EF94E00E94540B41
S11308E0E12CF12C02E020E030E045E550E068E145
S11308F071E082EE93E00E94540B8091D8079091AE
S1130900D9070E94C70E8091DB079091DC070E94F3
S1130910C70E78940E94BA0CFFCF0FB6F8940F92CA
S113092088E185B980E68BB98FE396E00197F1F70A
S113093000C0000080E185B980E28BB90F900FBE42
S113094081E090E00E94320E08950FB6F8940F9261
S113095084E185B980EA8BB98FE396E00197F1F7DA
S113096000C0000080E185B980E28BB90F900FBE12
S113097081E090E00E94320E089580913F079091AB
S11309804007A0914107B0914207AC01BD014F5F00
S11309905F4F6F4F7F4F433051056105710588F4F8
S11309A080E185B980E28BB92AE12A95F1F700C08C
S11309B084E185B980E68BB98AE18A95F1F700C0B4
S11309C008958F3F2FEF9207A207B2071CF40E94ED
S11309D08D0408950297A105B10514F00E94A504A1
S11309E008950E94BD04FDCF8333C1F128F48133FF
S11309F069F08233F9F00895883309F457C08933D4
S1130A0009F477C0843309F080C03CC084E185B91F
S1130A108BB180668BB92FEF80E792E02150804044
S1130A209040E1F700C0000080E185B98BB180738C
S1130A308BB9089588E185B98BB1806A8BB92FEFA2
S1130A4080E792E0215080409040E1F700C0000030
S1130A5080E185B98BB180738BB9089584E185B940
S1130A608BB1806A8BB92FEF80E792E021508040F0
S1130A709040E1F700C0000080E185B98BB180733C
S1130A808BB9089588E185B98BB180668BB92FEF56
S1130A9080E792E0215080409040E1F700C00000E0
S1130AA080E185B98BB180738BB9089580913E073D
S1130AB0811110C08091D8079091D9070E946B0CC6
S1130AC08091DB079091DC070E946B0C81E080939E
S1130AD03E0708958091D8079091D9070E94C70EC8
S1130AE08091DB079091DC070E946B0C10923E070B
S1130AF0089580913D07811105C05C9A81E080933F
S1130B003D0708955C9810923D070895CF93DF93B5
S1130B10CDB7DEB760970FB6F894DEBF0FBECDBF7A
S1130B208E010F5F1F4F0F2EF3E03F2EF02D5E015D
S1130B3088E0A80EB11C0F2EF0EA8F2E912CF02D18
S1130B400F2EF6E2CF2ED12CF02D0F2EF8E2EF2E41
S1130B50F12CF02D87E0E2E0F1E0D80101900D9254
S1130B608A95E1F7F501832D11928A95E9F767E4F7
S1130B7088E60E940E03B4010E944E14072E000C56
S1130B80880B990B0E94E5120E9402142B013C0170
S1130B9060913F077091400780914107909142070F
S1130BA00E94E512A30192010E9441120E94AD121B
S1130BB0DC01CB0180933F0790934007A09341074A
S1130BC0B09342074AE0BE01655F7F4F0E949714CD
S1130BD08AE0EEE1F1E0D80101900D928A95E1F707
S1130BE08091390790913A07A0913B07B0913C0757
S1130BF04497A105B1053CF0C8010E948F02CE01C3
S1130C000B960E948F020E94A4008093DA074AE0A8
S1130C10BE01655F7F4F90E00E949714DA82C9821B
S1130C20BE01655F7F4FC8010E948C14F8010190DA
S1130C300020E9F73197F182E082809139079091A1
S1130C403A07A0913B07B0913C074497A105B10531
S1130C505CF0C8010E948F021092390710923A0783
S1130C6010923B0710923C070E9486028093D7079C
S1130C700E94F40481E090E00E94320E80913907D2
S1130C8090913A07A0913B07B0913C070196A11DB2
S1130C90B11D8093390790933A07A0933B07B09313
S1130CA03C0758CF31E1FC013083319722E22083A5
S1130CB03197A3E3A0833197608331977083319791
S1130CC01082319760E8608331971082319762E037
S1130CD06083319763E06083319764E06083319788
S1130CE065E06083319766E06083319767E06083F5
S1130CF0319768E06083319769E06083319760E100
S1130D00608331973083319732E13083319733E117
S1130D103083319734E13083319735E13083319733
S1130D2036E13083319737E13083319738E13083CE
S1130D30319739E13083319730E23083319731E2B2
S1130D40308331972083319723E220833197408386
S1130D5031975083319726E22083319727E220830D
S1130D60319728E22083319729E22083319720E3C9
S1130D702083319721E320838697089581E194E0CD
S1130D809093DE078093DD079093E0078093DF075D
S1130D908EE087BD82E084BD85E085BDEEE6F0E0AF
S1130DA0808182608083A091A707B091A807CD912C
S1130DB0CDBFDD91DEBFFF91EF91DF91CF91BF9168
S1130DC0AF919F918F917F916F915F914F913F91DF
S1130DD02F911F910F91FF90EF90DF90CF90BF90D4
S1130DE0AF909F908F907F906F905F904F903F90C7
S1130DF02F901F900F900FBE0F90089581E00895DB
S1130E000F920FB6F8940F921F9211242F923F92D3
S1130E104F925F926F927F928F929F92AF92BF9206
S1130E20CF92DF92EF92FF920F931F932F933F93F2
S1130E304F935F936F937F938F939F93AF93BF93DE
S1130E40CF93DF93EF93FF93A091A707B091A807E7
S1130E500DB60D920EB60D920E94460EA091A707F4
S1130E60B091A807CD91CDBFDD91DEBFFF91EF9189
S1130E70DF91CF91BF91AF919F918F917F916F91AE
S1130E805F914F913F912F911F910F91FF90EF90A0
S1130E90DF90CF90BF90AF909F908F907F906F9096
S1130EA05F904F903F902F901F900F900FBE0F9028
S1130EB008950F920FB6F8940F921F9211242F9257
S1130EC03F924F925F926F927F928F929F92AF92D6
S1130ED0BF92CF92DF92EF92FF920F931F932F93C3
S1130EE03F934F935F936F937F938F939F93AF93AE
S1130EF0BF93CF93DF93EF93FF93A091A707B09194
S1130F00A8070DB60D920EB60D9213BE8091DF07A1
S1130F109091E00701979093E0078093DF07892B76
S1130F2051F40E945D008091DD079091DE0790935B
S1130F30E0078093DF070E94F80C81110E94460E9F
S1130F40A091A707B091A807CD91CDBFDD91DEBFD9
S1130F50FF91EF91DF91CF91BF91AF919F918F91CD
S1130F607F916F915F914F913F912F911F910F91BD
S1130F70FF90EF90DF90CF90BF90AF909F908F90B5
S1130F807F906F905F904F903F902F901F900F90A5
S1130F900FBE0F9008950E94590718950FB6F89444
S1130FA00F92FC01928D0F900FBE81E0911180E0B1
S1130FB008950F931F93CF93DF93EC01042F1A8DA1
S1130FC04C8D41110CC088819981892B09F042C054
S1130FD08C819D810E94DF0F1D821C8242C0011101
S1130FE017C050E08A819B810E947C142C8D8A81D9
S1130FF09B81820F911D9B838A832C813D81821763
S1131000930750F1888199819B838A8380E029C06A
S113101050E08E819F810E947C148C8D90E091958C
S1131020819591092E813F81280F391F3F832E839B
S1131030488159812417350730F42C813D81820F72
S1131040931F9F838E83023049F4112349F011507A
S113105080E007C080E005C080E003C080E001C0FC
S113106080E01F5F1A8FDF91CF911F910F91089538
S1131070FC01448D4423A9F050E026813781240FDC
S1131080351F37832683848195812817390720F0FB
S11310908081918197838683CB01668177810E94C9
S11310A07C140895EF92FF920F931F93CF938C01BA
S11310B00FB6F8940F92FC01C68D1C16ACF481890E
S11310C0811106C011C0F8018189811105C00CC0CD
S11310D07801F1E1EF0EF11CC7010E94440F811168
S11310E00E94CD0FC15079F78FEFF801868F0F90D2
S11310F00FBE0FB6F8940F92C58D1C16ACF4808504
S1131100811106C011C0F8018085811105C00CC091
S11311107801F8E0EF0EF11CC7010E94440F811121
S11311200E94CD0FC15079F78FEFF801858F0F9092
S11311300FBECF911F910F91FF90EF900895CF9321
S1131140DF93EC010FB6F8940F92E881F9818B8D4F
S11311502C8D90E030E0829FA001839F500D929FE0
S1131160500D11244E0F5F1F5D834C831A8EFB8339
S1131170EA830197829FA001839F500D929F500D97
S11311801124CF01840F951F9F838E838FEF8D8F42
S11311908E8F61110CC08885882389F0CE01089652
S11311A00E94440F882359F00E94000708C0CE0112
S11311B008960E94E001CE0141960E94E0010F9042
S11311C00FBE81E0DF91CF9108950F931F93CF93CA
S11311D0DF93082F162F6623C1F0869FC0011124C8
S11311E04F960E94DB00EC01009741F415C00B8F71
S11311F01C8F61E0CE010E949F080EC04F96998318
S11312008883F5CFD983C883F2CF8FE190E00E9421
S1131210DB00EC01892BB1F7CE01DF91CF911F9157
S11312200F9108959F92AF92BF92CF92DF92EF9267
S1131230FF920F931F93CF93DF9300D000D01F92A0
S1131240CDB7DEB78C016B015D834C83A22EB12C2C
S1131250992493947C0188E0E80EF11C0FB6F8946D
S11312600F92F801928D838D981718F0F2E0AF1267
S113127019C04A2DB601C8010E94D907F801918905
S1131280992349F0C80141960E94440F882331F004
S11312900E94000703C081110E9400070F900FBE37
S11312A081E050C08C819D81892B21F40F900FBE69
S11312B080E048C0B11005C0CE0101960E948C0F99
S11312C0B92C0F900FBE0E94E80C0FB6F8940F9241
S11312D0F801858D8F3F09F4158EF801868D8F3FB7
S11312E009F4168E0F900FBEBE016C5F7F4FCE01C6
S11312F001960E94970F81111FC00FB6F8940F92A8
S1131300F801928D838D0F900FBE98130FC06C81DE
S11313107D81C7010E94190FC8010E9452080E94D2
S1131320B30D81119BCF0E94000798CFC8010E9482
S113133052080E94B30D92CFC8010E9452080E9425
S1131340B30D80E00F900F900F900F900F90DF91EE
S1131350CF911F910F91FF90EF90DF90CF90BF90AE
S1131360AF909F900895EF92FF920F931F93CF93A6
S1131370DF938A01FC01528D338D531710F0223014
S1131380F1F4422F7801EC011E8D0E94D9071F3F12
S113139081F489898823A9F0CE0141960E94440FE3
S11313A0882389F0E114F10481F081E0F70180835E
S11313B00DC0FF24F394F10EFE8E81E007C080E09F
S11313C005C081E003C081E001C081E0DF91CF91DD
S11313D01F910F91FF90EF9008959F92AF92BF924B
S11313E0CF92DF92EF92FF920F931F93CF93DF93ED
S11313F000D000D01F92CDB7DEB78C015B015D83B6
S11314004C83E12C992493946C0181E1C80ED11C86
S11314100FB6F8940F92F801F28CFF20A9F0B501F1
S1131420C8010E943808FA94F801F28E8085882356
S113143039F0C80108960E94440F81110E940007E8
S11314400F900FBE81E051C08C819D81892B21F4C6
S11314500F900FBE80E049C0E11005C0CE01019697
S11314600E948C0FE92C0F900FBE0E94E80C0FB65F
S1131470F8940F92F801858D8F3F09F4158EF801C9
S1131480868D8F3F09F4168E0F900FBEBE016C5FE0
S11314907F4FCE0101960E94970F81111AC0C80197
S11314A00E94CE07882379F06C817D81C6010E9459
S11314B0190FC8010E9452080E94B30D8111A8CFD0
S11314C00E940007A5CFC8010E9452080E94B30DD4
S11314D09FCFC8010E9452080E94B30DC8010E9408
S11314E0CE07882309F494CF80E00F900F900F90DB
S11314F00F900F90DF91CF911F910F91FF90EF907C
S1131500DF90CF90BF90AF909F900895CF93DF93DB
S1131510EC010FB6F8940F928D8D8F3F09F41D8E58
S11315208E8D8F3F09F41E8E0F900FBE8A8D811110
S113153004C0CE0141960E942B0FCE010E94520896
S1131540DF91CF910895E0918107F0918207808126
S1131550811107C08FEF9FEF90935907809358072D
S11315600895E0918107F09182070580F681E02DCE
S11315700680F781E02D82819381909359078093AF
S113158058070895FF920F931F93CF93DF93EC01B5
S1131590F62E00916007109161078091A707909142
S11315A0A80702960E944402CF3F8FEFD80769F440
S11315B0FF2059F06091A7077091A8076E5F7F4FD5
S11315C083E697E00E94F2012FC0C00FD11FE09183
S11315D0A707F091A807D383C283C017D10768F483
S11315E06091A7077091A80780917F079091800769
S11315F06E5F7F4F0E94130217C06091A70770911E
S1131600A80780918107909182076E5F7F4F0E94A7
S113161013028091580790915907C817D90720F4ED
S1131620D0935907C0935807DF91CF911F910F9121
S1131630FF9008950DE617E00F2EF3E8EF2EF7E084
S1131640FF2EF02D80916C07882329F10FB6F894B2
S11316500F92D8011596ED91FC911697C681D7810A
S1131660CE0102960E9444028091620781508093C9
S1131670620780916C07815080936C070F900FBEB6
S11316808F89988D0E947A01CE010E947A018091FF
S11316906C078111DBCFF7018081823010F00E944A
S11316A000070E94AD01CECF4F925F926F927F925E
S11316B08F929F92AF92BF92CF92DF92EF92FF925E
S11316C00F93CF93DF934C016B015A012901CA0197
S11316D00E94DB003C01892B09F4ECC088E290E015
S11316E00E94DB00EC01892BB1F0788E6F8AA50192
S11316F065EA70E0C3010E94851481E0A81AB1086C
S11317008F89988DA80EB91ED6018C91898F8C91E2
S1131710811105C018C0C3010E947A01CBC0AE017B
S1131720465E5F4FF6013196B8E0CB0ED11CCF0177
S11317302191DA012D93AD01DC018C91882319F0FC
S1131740EC15FD05A1F718A2043008F003E00E8B98
S113175009A31AA26E01B2E0CB0ED11CC6010E94ED
S1131760EE01CE010C960E94EE01D987C88784E071
S113177090E0801B91099D878C87DB8BCA8B1BA211
S11317801CA21DA21EA21FA2A201B401C5010E9497
S1131790520699838883E114F10419F0F701D18387
S11317A0C0830FB6F8940F92809162078F5F809385
S11317B062078091A7079091A807892BD1F5D09350
S11317C0A807C093A70780916207813009F041C040
S11317D083E897E00E94E0018CE897E00E94E00132
S11317E085E997E00E94E0018EE997E00E94E0011C
S11317F08CE497E00E94E00183E497E00E94E0011A
S113180086E797E00E94E0018DE697E00E94E00100
S113181083E697E00E94E0018CE497E090938207CE
S11318208093810783E497E09093800780937F07F8
S113183010C080915E0781110CC0E091A707F09160
S1131840A80796898E89891720F0D093A807C0939A
S1131850A70780915A078F5F80935A078E899091CA
S11318605F07981710F480935F0790E09C01220FA4
S1131870331F220F331F220F331F820F931FB60112
S11318808D57984F0E94F2010F900FBE80915E0712
S1131890882361F0E091A707F091A80796898E89C3
S11318A0981730F40E94000781E005C081E003C06E
S11318B081E001C08FEFDF91CF910F91FF90EF9006
S11318C0DF90CF90BF90AF909F908F907F906F905C
S11318D05F904F9008950F931F93CF93DF932091C0
S11318E0A7073091A8078217930709F43EC0009711
S11318F009F43BC00FB6F8940F92FC01228533859E
S11319002356374081F5FC0124893589F7E02637D1
S11319103F0749F1232B39F5EC018C010E5F1F4F72
S1131920C8010E9444028E8990915F07981710F4B1
S113193080935F0790E09C01220F331F220F331F17
S1131940220F331F820F931FB8018D57984F0E94A7
S1131950F201E091A707F091A8079E89868998175C
S113196010F00E9400070F900FBEDF91CF911F91DE
S11319700F910895EF92FF920F930F2EF6E5EF2E3D
S1131980F7E0FF2EF02D00E020E030E045E550E0E8
S113199068E271E08AE19BE00E94540B8130A1F47B
S11319A00E947710813081F4F8948FEF9FEF909329
S11319B059078093580781E080935E07109261076E
S11319C0109260070E94BE060F91FF90EF90089559
S11319D0809155078F5F8093550708950FB6F8944B
S11319E00F9280916007909161070F900FBE089548
S11319F0CF92DF92EF92FF920F931F93CF93DF93D7
S1131A0080915507811199C0E0906007F0906107BB
S1131A108FEFE81AF80AF0926107E0926007E11488
S1131A20F104B9F4809181079091820720917F0796
S1131A303091800730938207209381079093800729
S1131A4080937F0780915B078F5F80935B070E9481
S1131A50A30A8091580790915907E816F90610F4E3
S1131A60D12C53C0D12CCC24C394E0918107F091A4
S1131A7082078081811107C08FEF9FEF90935907F0
S1131A808093580742C0E0918107F0918207058056
S1131A90F681E02DC681D7818A819B81E816F906FB
S1131AA028F490935907809358072FC08E010E5F36
S1131AB01F4FC8010E9444028C899D89892B21F003
S1131AC0CE010C960E9444028E8990915F0798176C
S1131AD010F480935F0790E09C01220F331F220FC4
S1131AE0331F220F331F820F931FB8018D57984F56
S1131AF00E94F201E091A707F091A8079E898689C8
S1131B00981708F4B2CFDC2CB0CFE091A707F0917E
S1131B10A807868990E0FC01EE0FFF1FEE0FFF1F60
S1131B20EE0FFF1F8E0F9F1FFC01ED57F84F8081B2
S1131B30823048F0DD24D39406C080915D078F5F26
S1131B4080935D07D12C80915C07882311F0DD24FC
S1131B50D3948D2DDF91CF911F910F91FF90EF9032
S1131B60DF90CF900895DF92EF92FF920F931F932F
S1131B70CF93DF930FB6F8940F928091550781505D
S1131B80809355078091550781115FC0809162074A
S1131B90811133C05DC0D7011596ED91FC91169764
S1131BA0C681D781CE010C960E9444028E010E5F3D
S1131BB01F4FC8010E9444028E8990915F079817B5
S1131BC010F480935F0790E09C01220F331F220FD3
S1131BD0331F220F331F820F931FB8018D57984F65
S1131BE00E94F201E091A707F091A8079E898689D7
S1131BF0981768F0D0925C070AC0C0E0D0E00F2EBE
S1131C00F6E7EF2EF7E0FF2EF02DDD24D394F70155
S1131C1080818111C0CFCD2B11F00E94A30AC09105
S1131C205D07CC2351F0D1E00E94F80C8111D093D0
S1131C305C07C150C9F710925D0780915C07882347
S1131C4031F00E94000781E003C080E001C080E021
S1131C500F900FBEDF91CF911F910F91FF90EF90E6
S1131C60DF900895CF93DF93EC01892B51F00E940C
S1131C70E80C60E0CE010E94C20A0E94B30D8111FB
S1131C8002C00E940007DF91CF910895809155070B
S1131C90882321F081E080935C07089510925C070B
S1131CA0A091A707B091A807E091A707F091A80712
S1131CB02D913C918789908D8217930760F06091F4
S1131CC0A7077091A8078091A7079091A807675E5E
S1131CD07F4F0E94D30120915F07822F90E0FC0187
S1131CE0EE0FFF1FEE0FFF1FEE0FFF1FE80FF91F90
S1131CF0ED57F84F3081311111C02150822F90E0FF
S1131D00FC01EE0FFF1FEE0FFF1FEE0FFF1FE80F8A
S1131D10F91FED57F84F3081332379F3AC01440FA9
S1131D20551F440F551F440F551F480F591FDA0103
S1131D30AD57B84F1196ED91FC9112970280F38143
S1131D40E02D1296FC93EE9311974A57584FE417DF
S1131D50F50729F442815381FD0152834183FC013B
S1131D60EE0FFF1FEE0FFF1FEE0FFF1F8E0F9F1FC3
S1131D70FC01ED57F84F0180F281E02D86819781B7
S1131D809093A8078093A70720935F0708950F9364
S1131D901F93CF93DF93EC010FB6F8940F92892B26
S1131DA021F4C091A707D091A8078E010E5F1F4FA1
S1131DB0C8010E9444028C899D89892B21F0CE019F
S1131DC00C960E944402B80183E697E00E94F20157
S1131DD08FA1813009F41FA20F900FBE80915E077E
S1131DE0882339F00FB6F8940F920E94A30A0F903B
S1131DF00FBE8091A7079091A807C817D907A1F42F
S1131E0080915E07882319F00E9400070DC090910D
S1131E10630780916207981305C01092A807109277
S1131E20A70702C00E94460EDF91CF911F910F9128
S1131E300895CF93DF93EB016091A7077091A807F2
S1131E40645F7F4F0E94130261E0CE010E94C20AC8
S1131E50DF91CF9108950F931F93CF938B01C42FDC
S1131E606091A7077091A807645F7F4F0E94F201F9
S1131E70CC2311F00FEF1FEF6C2FC8010E94C20A90
S1131E80CF911F910F9108950F931F93CF93DF93D9
S1131E90DC011596ED91FC911697C681D7818E01D0
S1131EA0045F1F4FC8010E944402809155078111AD
S1131EB01CC00A501109C8010E9444028E899091E5
S1131EC05F07981710F480935F0790E09C01220F3E
S1131ED0331F220F331F220F331F820F931FB801AA
S1131EE08D57984F0E94F20105C0B80186E797E02C
S1131EF00E94F201E091A707F091A8079E898689C4
S1131F00891720F481E080935C0701C080E0DF91B1
S1131F10CF911F910F91089520915B07FC012083BD
S1131F202091600730916107328321830895CF9314
S1131F30DF930FB6F8940F922091600730916107F8
S1131F40DB014D915C914F3FBFEF5B07F1F0EC017A
S1131F50E981FA81A0915B07B881BA1719F02E17AD
S1131F603F07A8F42E1B3F0B2417350748F4FB0149
S1131F70421B530B518340830E948C0F80E008C0A6
S1131F80FB011182108281E003C080E001C081E086
S1131F900F900FBEDF91CF91089581E080935C078D
S1131FA0089580915E07882331F080915507882336
S1131FB021F080E0089581E0089582E008950F9370
S1131FC01F93CF93DF93FC01892B79F182A1815078
S1131FD082A3268991A1291751F181112AC0EF0109
S1131FE08F010E5F1F4FC8010E94440289A18E8B8E
S1131FF024E030E0281B31093D872C8790915F074E
S1132000981710F480935F0790E09C01220F331F10
S1132010220F331F220F331F820F931FB8018D57D6
S1132020984F0E94F20181E005C080E003C080E087
S113203001C080E0DF91CF911F910F910895FC01C1
S113204073836283918780874617570790F0421BFA
S1132050530B8485958548175907E0F4BF016E5FDB
S11320607F4F8091C1079091C2070E94130280E0C4
S113207008954217530718F46217730768F4BF01F1
S11320806E5F7F4F8091C3079091C4070E94130233
S113209080E0089581E0089581E008950FB6F894F2
S11320A00F928091BF079091C007892BE9F482EBCE
S11320B097E00E94E00189EA97E00E94E00182EB48
S11320C097E09093C4078093C30789EA97E09093BD
S11320D0C2078093C10740E065E08AE00E94E508FA
S11320E09093C0078093BF070F900FBE0895EF929F
S11320F0FF920F930E944E108091BF079091C007EA
S1132100892B91F00F2EFDEBEF2EF7E0FF2EF02D33
S113211003E020E030E045E550E06DE271E081E568
S113212091E10E94540B01C080E00F91FF90EF9069
S113213008950F931F93CF93DF9300D000D01F9285
S1132140CDB7DEB7E091BF07F091C007309771F1CA
S1132150D90169835B834A839D838C836630ECF465
S11321600E94D10F823061F420E0A801BE016F5FAC
S11321707F4F8091BF079091C0070E94120917C03A
S113218020E040E050E0BE016F5F7F4F8091BF07C9
S11321909091C0070E9412090AC020E0AD01BE015F
S11321A06F5F7F4FCF010E94B30901C080E00F90A1
S11321B00F900F900F900F90DF91CF911F910F917F
S11321C00895AF92BF92CF92DF92EF92FF920F9356
S11321D01F93CF93DF936C010E94EE0C7C018091DE
S11321E0BB079091BC07E816F90608F048C030C058
S11321F00580F681E02DA080B180C681D7818E0153
S11322000E5F1F4FC8010E944402E989FA89CE017A
S113221009958E858130E1F48C859D858A0D9B1D01
S1132220A816B90660F49B838A83D987C887B80146
S11322308091C3079091C4070E94130209C000E073
S113224010E020E030E0A50160E0CE010E9499108A
S1132250E091C307F091C40780818111C9CF8091B7
S1132260C1079091C2079093C4078093C307F0936A
S1132270C207E093C10781E0F601808302C0F60142
S11322801082F092BC07E092BB07C701DF91CF91A7
S11322901F910F91FF90EF90DF90CF90BF90AF9080
S11322A00895CF93DF9300D000D000D0CDB7DEB730
S11322B0CE0101964C0144244394E12CF12C512C81
S11322C0C82ED92CE091C307F091C40780818823DC
S11322D009F4C2C00580F681E02DA080B1800E947F
S11322E0E80CC4010E94E1108C018981811147C06E
S11322F00A151B0598F10E94B30DE091C307F091F4
S1132300C4070580F681E02D66807780C3010296BC
S11323100E944402D3011E968C911E978130B1F421
S11323201C966D917C911D976A0D7B1D9501A801EA
S1132330C3010E941F10882349F00E2D1F2D2E2D3E
S11323403F2DA501652DC3010E949910D30151961B
S1132350ED91FC915297C301099571C0452DB501CA
S1132360601B710B8091BF079091C0070E94860A81
S11323700E94B30D811163C00E94000760C00E94D7
S1132380B30D5DC0898188230CF459C0AC80BD8035
S1132390F50182859385892B21F0C50102960E945F
S11323A04402CE0106960E94E110E9810E2FEE0F41
S11323B0110B220B330B0A30110508F040C0F80151
S11323C0EC5CFF4F0C9462142A813B81D5011C966E
S11323D06D917C911D97620F731FAC01C5010E9422
S11323E01F10882361F1D5015196ED91FC9152970C
S11323F0C5010995F5018685813009F54A815B811E
S113240084859585480F591F0E2D1F2D2E2D3F2D88
S1132410652DC5010E94991012C06A817B81D50186
S11324201D967C936E931C97680F791F9C01AC01D9
S1132430C5010E941F1003C0C5010E947A014E2DE0
S11324405F2D6C2D7D2D8091BF079091C0070E9458
S1132450ED09811197CF36CF0E94E80CC4010E9488
S1132460E1108C01898181118ACFE091C107F0913B
S1132470C2078081442D8111452DAE2CBF2C6FCF16
S11324805058BB27AA270E9458120C9437130E9455
S1132490291338F00E94301320F039F49F3F19F4C7
S11324A026F40C9426130EF4E095E7FB0C94201309
S11324B0E92F0E94481358F3BA1762077307840779
S11324C0950720F079F4A6F50C946A130EF4E095C0
S11324D00B2EBA2FA02D0B01B90190010C01CA01DA
S11324E0A0011124FF27591B99F0593F50F4503E85
S11324F068F11A16F040A22F232F342F4427585F77
S1132500F3CF469537952795A795F0405395C9F78E
S11325107EF41F16BA0B620B730B840BBAF0915046
S1132520A1F0FF0FBB1F661F771F881FC2F70EC0E5
S1132530BA0F621F731F841F48F4879577956795B8
S1132540B795F7959E3F08F0B0CF9395880F08F0A4
S11325509927EE0F9795879508950E94B412689471
S1132560B1110C946B1308950E94501388F09F5777
S113257098F0B92F9927B751B0F0E1F0660F771FA3
S1132580881F991F1AF0BA95C9F714C0B13091F099
S11325900E946A13B1E008950C946A13672F782F90
S11325A08827B85F39F0B93FCCF38695779567955E
S11325B0B395D9F73EF490958095709561957F4FCA
S11325C08F4F9F4F0895E89409C097FB3EF4909570
S11325D08095709561957F4F8F4F9F4F9923A9F0F8
S11325E0F92F96E9BB279395F69587957795679587
S11325F0B795F111F8CFFAF4BB0F11F460FF1BC0CB
S11326006F5F7F4F8F4F9F4F16C0882311F096E95D
S113261011C0772321F09EE8872F762F05C066230B
S113262071F096E8862F70E060E02AF09A95660FC4
S1132630771F881FDAF7880F9695879597F908957D
S113264097F99F6780E870E060E008959FEF80EC61
S1132650089500240A941616170618060906089504
S113266000240A9412161306140605060895092E6A
S11326700394000C11F4882352F0BB0F40F4BF2BD9
S113268011F460FF04C06F5F7F4F8F4F9F4F089519
S113269057FD9058440F551F59F05F3F71F047950F
S11326A0880F97FB991F61F09F3F79F087950895F4
S11326B0121613061406551FF2CF4695F1DF08C013
S11326C0161617061806991FF1CF86957105610530
S11326D008940895E894BB2766277727CB0197F9D8
S11326E008950E9484130C9437130E94291338F020
S11326F00E94301320F0952311F00C9420130C94B5
S1132700261311240C946B130E94481370F3959FA5
S1132710C1F3950F50E0551F629FF001729FBB27D4
S1132720F00DB11D639FAA27F00DB11DAA1F649F70
S11327306627B00DA11D661F829F2227B00DA11D23
S1132740621F739FB00DA11D621F839FA00D611DA9
S1132750221F749F3327A00D611D231F849F600DCA
S1132760211D822F762F6A2F11249F5750409AF0F3
S1132770F1F088234AF0EE0FFF1FBB1F661F771F7F
S1132780881F91505040A9F79E3F510580F00C944A
S113279020130C946B135F3FE4F3983ED4F38695B7
S11327A077956795B795F795E7959F5FC1F7FE2BEA
S11327B0880F911D9695879597F908950E94501357
S11327C0E8F09E37E8F09639B8F49E3848F4672F5D
S11327D0782F8827985FF9CF869577956795939595
S11327E09539D0F3B62FB1706B0F711D811D20F494
S11327F087957795679593950C940D140C942814EC
S11328000C946B130E94361430F09F3710F40C9420
S11328106B130C940D140C942814882371F47723EF
S113282021F09850872B762F07C0662311F499273F
S11328300DC09051862B70E060E02AF09A95660FE7
S1132840771F881FDAF7880F9695879597F908956B
S11328509F3F31F0915020F4879577956795B79510
S1132860880F911D9695879597F908950E945013A6
S1132870A0F0BEE7B91788F4BB279F3860F416169A
S1132880B11D672F782F8827985FF7CF86957795A6
S11328906795B11D93959639C8F3089597FB072E54
S11328A016F4009407D077FD09D00E94681407FC41
S11328B005D03EF4909581959F4F0895709561954C
S11328C07F4F0895EE0FFF1F0590F491E02D0994BA
S11328D0AA1BBB1B51E107C0AA1FBB1FA617B70742
S11328E010F0A61BB70B881F991F5A95A9F780955E
S11328F09095BC01CD010895FB01DC0102C001905B
S11329000D9241505040D8F70895DC0101C06D93F9
S113291041505040E0F70895FB01DC010D90002088
S1132920E9F7119701900D920020E1F70895BB2774
S11329304A3031F4992322F4BDE2909581959F4F5A
S11329400C94A314BB27FB015527AA27880F991FB2
S1132950AA1FA41710F0A41B83955051B9F7A05DCA
S1132960AA3308F0A95DA193009779F7B111B19347
S11329701192CB010C94BC14DC01FC01672F719102
S11329807723E1F7329704C07C916D937083629151
S10F2990AE17BF07C8F30895F894FFCFFA
S113299CF905416358203D20000000005461736B1D
S11329AC31005461736B32005461736B3400207CBE
S11329BC2047795A203D200049444C4500546D72FF
S10929CC205376630000B5
S9030000FC
