S01200004672656552544F5331302E73726563E7
S11300000C943E000C945B000C945B000C945B001D
S11300100C945B000C945B000C945B000C945B00F0
S11300200C945B000C945B000C945B000C945B00E0
S11300300C945B000C945B000C9476060C945B00AF
S11300400C945B000C945B000C945B000C945B00C0
S11300500C945B000C945B000C945B000C945B00B0
S11300600C945B000C945B000810081008104310FB
S113007031104010081008104310311011241FBE15
S1130080CFEFD8E0DEBFCDBF11E0A0E0B1E0EEEAF3
S1130090F4E202C005900D92A835B107D9F727E024
S11300A0A8E5B1E001C01D92AB3EB207E1F70E94A2
S11300B06A040C9455120C9400008F938FB78F939D
S11300C0F8948091E7078F5F8093E7078091E807B2
S11300D08F4F8093E8078091E9078F4F8093E9075A
S11300E08091EA078F4F8093EA078F918FBF8F919A
S11300F008950F931F93CF93DF93EC010E945E0B3F
S11301008091580181111DC0EDE5F1E082E691E096
S11301109183808313821282E9E5F1E089EF95E00F
S11301209383828311821082A1E6B1E014969C939A
S11301308E9313971296FC93EE93119781E080931C
S11301405801209709F46BC09E012C5F3F4F239602
S1130150C83FD54008F060C0E0915D01F0915E01B8
S1130160ADE5B1E002C0DF01FC0182819381821719
S1130170930720F4808191810097A9F7C1E0E935C4
S1130180FC0709F449C0CD91DC9111978E010C5FF5
S11301901F4F808191818D939C9382819381821BD7
S11301A0930B8930910510F1BF01620F731FDB01BE
S11301B013969C938E9312973383228312964D91B8
S11301C05C9113978DE591E001C0CD01EC01A8810C
S11301D0B98112962D913C91139724173507A8F3F2
S11301E0EB01B983A883DC016D937C9380910001BA
S11301F09091010122813381821B930B9093010121
S1130200809300010E94290C0115110559F40E94E4
S1130210670100E010E006C00E94290CF8CF0E949C
S1130220290CF5CFC801DF91CF911F910F9108954B
S11302300F931F93CF93DF93009741F1EC018C014F
S1130240045011090E945E0BF80142815381ADE50F
S1130250B1E001C0DF01ED91FC911197228133815E
S113026024173507B8F32497F983E8830D931C9377
S113027020910001309101018A819B81820F931F9B
S113028090930101809300010E94290CDF91CF918A
S11302901F910F9108958FE380937E0080B7877F2D
S11302A080BF80B7806880BF83B7817F83BF0FB66C
S11302B0F8940F9283B7816083BF85B7806685BF4A
S11302C08F7D85BF0F900FBE889513BE0895259A24
S11302D02D9A83ED90E30197F1F700C000001D9A79
S11302E0F8CF259A2D9A2FE78AE196E02150804095
S11302F09040E1F700C000001D9AF5CFFC01039681
S1130300928381832FEF3FEF348323839683858306
S11303109087878310820895FC01118610860895C2
S1130320CF93DF939C01FB01DC011196CD91DC910D
S11303301297D383C2838C819D81958384838C811E
S11303409D81DC0113967C936E9312977D836C835D
S113035031872087F90180818F5F8083DF91CF917E
S11303600895CF93DF93EB01488159814F3F2FEFDD
S1130370520721F4FC01A781B0850DC0DC0113965E
S113038001C0DF011296ED91FC9113972081318118
S113039042175307B0F71296ED91FC911397FB8324
S11303A0EA83D583C483BD83AC831396DC93CE9355
S11303B0129799878887FC0120812F5F2083DF9122
S11303C0CF910895CF93DF93FC01A085B185C281BD
S11303D0D381848195819D838C83C481D5818281DD
S11303E093819B838A8311968D919C911297E81730
S11303F0F90731F48481958112969C938E93119719
S1130400118610868C9181508C938C91DF91CF91C1
S113041008951092C50088E68093C400E1ECF0E0F2
S113042088E180838081886080838081806180838B
S113043086E08093C2000895E0ECF0E0908195FF9F
S1130440FDCF8093C6000895CF93DF93EC0188819C
S1130450882331F021960E941C0289918111FBCFDF
S1130460DF91CF910895CF93DF93880FECEBF0E009
S1130470A9EBB0E0CBEBD0E034E854EA74E91082A5
S113048050839081992354F09FEF9150208122232F
S11304901CF09111FACFF3CF992389F39C91987FA3
S11304A0983011F0903159F78883308390819923E3
S11304B054F09FEF9150208122231CF09111FACF28
S11304C0DECF9923E1F29C91987F983111F090341A
S11304D0B1F6688330839081992354F09FEF915053
S11304E0208122231CF09111FACFC9CF992339F22C
S11304F09C91987F983219F6488330839081992390
S11305005CF09FEF9150208122231CF09111FACFCF
S1130510B6CF992309F4B3CF9C91987F983209F010
S1130520AECF7083908194FD0BC09FEF91502081DA
S113053024FD03C09111FACFA2CF992309F49FCFD0
S1130540DF91CF910895CF92DF92EF92FF920F93B4
S11305501F93CF93DF93880FCC24C394C80E30E14C
S1130560ECEBF0E014EAF12C00E0C9EBD0E0ABEBEB
S1130570B0E074E80F2EF4ECDF2EF02D0F2EF4E92A
S1130580EF2EF02D1083908199235CF09FEF915012
S1130590208122231CF09111FACF94C0992309F4ED
S11305A098C09881987F983019F0903109F091C0E3
S11305B08C937083908199235CF09FEF91502081FC
S11305C022231CF09111FACF7DC0992309F481C034
S11305D09881987F983119F0903409F07AC06C931F
S11305E07083908199235CF09FEF915020812223A6
S11305F01CF09111FACF66C0992309F46AC098815E
S1130600987F983209F065C01083908199235CF03B
S11306109FEF9150208122231CF09111FACF52C0F8
S1130620992309F456C09881987F983019F0903135
S113063009F04FC0CC927083908199235CF09FEFB6
S11306409150208122231CF09111FACF3BC09923B1
S113065009F43FC09881987F983111F09034C9F51E
S1130660D0829081992344F09FEF915020812223DE
S113067024F09111FACF01C09FEF4C9150E0542F18
S113068044279923F9F070839081992344F09FEFD4
S113069091502081222324F09111FACF01C09FEFC1
S11306A02C91422B992371F0E082908194FD15C026
S11306B09FEF9150208124FD03C09111FACF02C015
S11306C091110BC01082315009F05CCF40E050E032
S11306D004C04F2D502F90E0F3CFCA01DF91CF918A
S11306E01F910F91FF90EF90DF90CF900895CF93DB
S11306F0DF93CDB7DEB764970FB6F894DEBF0FBEB5
S1130700CDBF0F2EF3E0BF2EF02D6E0188E0C80E92
S1130710D11C04E610E00F2EF0E2EF2EFAE0FF2EDB
S1130720F02D6BE388E60E94A3024AE0BE01655FF8
S11307307F4F0E94201287E0E2E0F1E0DE01119693
S113074001900D928A95E1F7F6018B2D11928A950D
S1130750E9F7CE0101960E942402CE010B960E9475
S113076024026DE388E60E94A3024AE0BE01655FAD
S11307707F4F0E9420128AE0ECE0F1E0DE01119646
S113078001900D928A95E1F7CE0101960E94240210
S1130790CE010B960E9424026FE388E60E94A30216
S11307A04AE0BE01655F7F4F0E9420128AE0E6E1C5
S11307B0F1E0DE01119601900D928A95E1F7CE01E8
S11307C001960E942402CE010B960E94240263E447
S11307D088E60E94A3024AE0BE01655F7F4F0E9443
S11307E020128AE0E0E2F1E0DE01119601900D9220
S11307F08A95E1F7CE0101960E942402CE010B9660
S11308000E94240265E488E60E94A3024AE0BE0135
S1130810655F7F4F0E9420128AE0EAE2F1E0DE0188
S1130820119601900D928A95E1F7CE0101960E94EE
S11308302402CE010B960E94240267E488E60E94FB
S1130840A302B8010E94E211072E000C880B990B39
S11308500E9409110E9495112B013C0160915B07D4
S113086070915C0780915D0790915E070E94091169
S1130870A30192010E9465100E94D110DC01CB01FA
S113088080935B0790935C07A0935D07B0935E072A
S11308904AE0BE01655F7F4F0E9420128AE0E4E3D4
S11308A0F1E0DE01119601900D928A95E1F7CE01F7
S11308B001960E942402CE010B960E942402FA8221
S11308C0E9821B82CE0101960E942402C8010E9483
S11308D0A80C27CF8091E1079091E207892B81F43E
S11308E081E00E945E089093E2078093E1070097FD
S11308F039F020E040E050E060E070E00E94BD0785
S11309000E9409028CE08093B80047E069E188E620
S11309100E94330248E16BE188E60E94330241E021
S11309206BE688E60E943302E12CF12C01E020E022
S113093030E045E550E06EE371E087E793E00E9424
S1130940190A20E030E045E550E064E471E08AEF04
S113095094E00E94190A0E94300BFFCF88E185B908
S113096080E68BB981E090E00E94A80C80E185B913
S113097080E28BB985E090E00E94A80C089584E1A0
S113098085B980EA8BB981E090E00E94A80C80E1EF
S113099085B980E28BB985E090E00E94A80C0895A7
S11309A080915B0790915C07A0915D07B0915E0711
S11309B00097A105B10589F484E185B980E68BB976
S11309C081E090E00E94A80C80E185B980E28BB9B7
S11309D081E090E00E94A80C0895BB231CF40E94BF
S11309E0AE040895181619061A061B0614F40E947C
S11309F0BF0408950E94D004FDCF31E1FC0130838F
S1130A00319722E220833197A3E3A0833197608357
S1130A103197708331971082319760E86083319702
S1130A201082319762E06083319763E0608331978D
S1130A3064E06083319765E06083319766E06083AA
S1130A40319767E06083319768E06083319769E0AC
S1130A506083319760E1608331973083319732E16D
S1130A603083319733E13083319734E130833197E8
S1130A7035E13083319736E13083319737E1308384
S1130A80319738E13083319739E13083319730E25F
S1130A903083319731E2308331972083319723E2D9
S1130AA020833197408331975083319726E2208306
S1130AB0319727E22083319728E22083319729E276
S1130AC02083319720E32083319721E32083869785
S1130AD0089581E194E09093E4078093E307909371
S1130AE0E6078093E5078EE087BD82E084BD85E05C
S1130AF085BDEEE6F0E0808182608083A091C3072B
S1130B00B091C407CD91CDBFDD91DEBFFF91EF91D0
S1130B10DF91CF91BF91AF919F918F917F916F9111
S1130B205F914F913F912F911F910F91FF90EF9003
S1130B30DF90CF90BF90AF909F908F907F906F90F9
S1130B405F904F903F902F901F900F900FBE0F908B
S1130B50089581E008950F920FB6F8940F921F92B2
S1130B6011242F923F924F925F926F927F928F92B5
S1130B709F92AF92BF92CF92DF92EF92FF920F9328
S1130B801F932F933F934F935F936F937F938F9311
S1130B909F93AF93BF93CF93DF93EF93FF93A09172
S1130BA0C307B091C4070DB60D920EB60D920E9404
S1130BB0BC0CA091C307B091C407CD91CDBFDD910A
S1130BC0DEBFFF91EF91DF91CF91BF91AF919F91E4
S1130BD08F917F916F915F914F913F912F911F91D1
S1130BE00F91FF90EF90DF90CF90BF90AF909F90C8
S1130BF08F907F906F905F904F903F902F901F90B9
S1130C000F900FBE0F9008950F920FB6F8940F92A5
S1130C101F9211242F923F924F925F926F927F9274
S1130C208F929F92AF92BF92CF92DF92EF92FF92F8
S1130C300F931F932F933F934F935F936F937F93E0
S1130C408F939F93AF93BF93CF93DF93EF93FF93D0
S1130C50A091C307B091C4070DB60D920EB60D92C4
S1130C6013BE8091E5079091E60701979093E607FC
S1130C708093E507892B51F40E945D008091E3077E
S1130C809091E4079093E6078093E5070E946E0B2A
S1130C9081110E94BC0CA091C307B091C407CD91EF
S1130CA0CDBFDD91DEBFFF91EF91DF91CF91BF9179
S1130CB0AF919F918F917F916F915F914F913F91F0
S1130CC02F911F910F91FF90EF90DF90CF90BF90E5
S1130CD0AF909F908F907F906F905F904F903F90D8
S1130CE02F901F900F900FBE0F9008950E9404063E
S1130CF018950FB6F8940F92FC01928D0F900FBEC9
S1130D0081E0911180E008950F931F93CF93DF93B7
S1130D10EC01042F1A8D4C8D41110CC088819981EE
S1130D20892B09F042C08C819D810E94030E1D8293
S1130D301C8242C0011117C050E08A819B810E942D
S1130D4010122C8D8A819B81820F911D9B838A8333
S1130D502C813D818217930750F1888199819B836F
S1130D608A8380E029C050E08E819F810E94101206
S1130D708C8D90E09195819591092E813F81280F6A
S1130D80391F3F832E83488159812417350730F456
S1130D902C813D81820F931F9F838E83023049F4FF
S1130DA0112349F0115080E007C080E005C080E0C5
S1130DB003C080E001C080E01F5F1A8FDF91CF91F4
S1130DC01F910F910895FC01448D4423A9F050E034
S1130DD026813781240F351F3783268384819581AB
S1130DE02817390720F08081918197838683CB016E
S1130DF0668177810E9410120895EF92FF920F93FB
S1130E001F93CF938C010FB6F8940F92FC01C68DFB
S1130E101C16ACF48189811106C011C0F8018189C6
S1130E20811105C00CC07801F1E1EF0EF11CC7017E
S1130E300E94680D81110E94F10DC15079F78FEF66
S1130E40F801868F0F900FBE0FB6F8940F92C58DE0
S1130E501C16ACF48085811106C011C0F801808590
S1130E60811105C00CC07801F8E0EF0EF11CC70138
S1130E700E94680D81110E94F10DC15079F78FEF26
S1130E80F801858F0F900FBECF911F910F91FF90A6
S1130E90EF900895CF93DF93EC010FB6F8940F927F
S1130EA0E881F9818B8D2C8D90E030E0829FA00148
S1130EB0839F500D929F500D11244E0F5F1F5D8331
S1130EC04C831A8EFB83EA830197829FA001839F40
S1130ED0500D929F500D1124CF01840F951F9F83B5
S1130EE08E838FEF8D8F8E8F61110CC08885882340
S1130EF089F0CE0108960E94680D882359F00E945B
S1130F00AB0508C0CE0108960E947E01CE01419631
S1130F100E947E010F900FBE81E0DF91CF91089572
S1130F200F931F93CF93DF93082F162F6623C1F0DF
S1130F30869FC00111244F960E947900EC0100970E
S1130F4041F415C00B8F1C8F61E0CE010E944A074B
S1130F500EC04F9699838883F5CFD983C883F2CF87
S1130F608FE190E00E947900EC01892BB1F7CE016A
S1130F70DF91CF911F910F9108959F92AF92BF92ED
S1130F80CF92DF92EF92FF920F931F93CF93DF9351
S1130F9000D000D01F92CDB7DEB78C016B015D830A
S1130FA04C83A22EB12C992493947C0188E0E80E02
S1130FB0F11C0FB6F8940F92F801928D838D981757
S1130FC018F0F2E0AF1219C04A2DB601C8010E9410
S1130FD08406F8019189992349F0C80141960E9439
S1130FE0680D882331F00E94AB0503C081110E9473
S1130FF0AB050F900FBE81E050C08C819D81892B81
S113100021F40F900FBE80E048C0B11005C0CE019E
S113101001960E94B00DB92C0F900FBE0E945E0B7A
S11310200FB6F8940F92F801858D8F3F09F4158E51
S1131030F801868D8F3F09F4168E0F900FBEBE0106
S11310406C5F7F4FCE0101960E94BB0D81111FC0C2
S11310500FB6F8940F92F801928D838D0F900FBE06
S113106098130FC06C817D81C7010E943D0DC8019A
S11310700E94FD060E94290C81119BCF0E94AB05A2
S113108098CFC8010E94FD060E94290C92CFC80186
S11310900E94FD060E94290C80E00F900F900F9093
S11310A00F900F90DF91CF911F910F91FF90EF90D0
S11310B0DF90CF90BF90AF909F900895CF93DF9330
S11310C0482F60E081E00E949007EC01009761F0F6
S11310D01D821C82198218821E8220E040E050E0AA
S11310E060E070E00E94BD07CE01DF91CF910895CA
S11310F0EF92FF920F931F93CF93DF938A01FC012A
S1131100528D338D531710F02230F1F4422F7801B1
S1131110EC011E8D0E9484061F3F81F48989882377
S1131120A9F0CE0141960E94680D882389F0E1144C
S1131130F10481F081E0F70180830DC0FF24F39472
S1131140F10EFE8E81E007C080E005C081E003C09F
S113115081E001C081E0DF91CF911F910F91FF9059
S1131160EF9008959F92AF92BF92CF92DF92EF9249
S1131170FF920F931F93CF93DF9300D000D01F9261
S1131180CDB7DEB78C015B015D834C83E12C9924E0
S113119093946C0181E1C80ED11C0FB6F8940F92A0
S11311A0F801F28CFF20A9F0B501C8010E94E30602
S11311B0FA94F801F28E8085882339F0C8010896E4
S11311C00E94680D81110E94AB050F900FBE81E053
S11311D051C08C819D81892B21F40F900FBE80E03A
S11311E049C0E11005C0CE0101960E94B00DE92C62
S11311F00F900FBE0E945E0B0FB6F8940F92F80189
S1131200858D8F3F09F4158EF801868D8F3F09F483
S1131210168E0F900FBEBE016C5F7F4FCE010196FC
S11312200E94BB0D81111AC0C8010E94790688234F
S113123079F06C817D81C6010E943D0DC8010E9438
S1131240FD060E94290C8111A8CF0E94AB05A5CFF1
S1131250C8010E94FD060E94290C9FCFC8010E946C
S1131260FD060E94290CC8010E947906882309F40E
S113127094CF80E00F900F900F900F900F90DF911C
S1131280CF911F910F91FF90EF90DF90CF90BF907F
S1131290AF909F900895CF93DF93EC010FB6F8942D
S11312A00F928D8D8F3F09F41D8E8E8D8F3F09F423
S11312B01E8E0F900FBE8A8D811104C0CE014196FF
S11312C00E944F0DCE010E94FD06DF91CF9108953B
S11312D0E0919D07F0919E078081811107C08FEFF7
S11312E09FEF90937507809374070895E0919D078D
S11312F0F0919E070580F681E02D0680F781E02DB0
S11313008281938190937507809374070895FF9267
S11313100F931F93CF93DF93EC01F62E00917C077C
S113132010917D078091C3079091C40702960E9493
S1131330E201CF3F8FEFD80769F4FF2059F06091A5
S1131340C3077091C4076E5F7F4F8FE797E00E94D9
S113135090012FC0C00FD11FE091C307F091C407C3
S1131360D383C283C017D10768F46091C307709117
S1131370C40780919B0790919C076E5F7F4F0E94EA
S1131380B10117C06091C3077091C40780919D0794
S113139090919E076E5F7F4F0E94B1018091740708
S11313A090917507C817D90720F4D0937507C09397
S11313B07407DF91CF911F910F91FF90089509E871
S11313C017E00F2EFFE9EF2EF7E0FF2EF02D8091AE
S11313D08807882329F10FB6F8940F92D80115963F
S11313E0ED91FC911697C681D781CE0102960E9499
S11313F0E20180917E07815080937E078091880767
S11314008150809388070F900FBE8F89988D0E941A
S11314101801CE010E941801809188078111DBCF49
S1131420F7018081823010F00E94AB050E944B01CD
S1131430CECF4F925F926F927F928F929F92AF9294
S1131440BF92CF92DF92EF92FF920F93CF93DF93ED
S11314504C016B015A012901CA010E9479003C0127
S1131460892B09F4ECC088E290E00E947900EC0139
S1131470892BB1F0788E6F8AA50165EA70E0C3010B
S11314800E94191281E0A81AB1088F89988DA80EBC
S1131490B91ED6018C91898F8C91811105C018C019
S11314A0C3010E941801CBC0AE01465E5F4FF60136
S11314B03196B8E0CB0ED11CCF012191DA012D93E6
S11314C0AD01DC018C91882319F0EC15FD05A1F721
S11314D018A2043008F003E00E8B09A31AA26E01CF
S11314E0B2E0CB0ED11CC6010E948C01CE010C9639
S11314F00E948C01D987C88784E090E0801B910901
S11315009D878C87DB8BCA8B1BA21CA21DA21EA2EB
S11315101FA2A201B401C5010E94FD04998388831E
S1131520E114F10419F0F701D183C0830FB6F894E4
S11315300F9280917E078F5F80937E078091C3070F
S11315409091C407892BD1F5D093C407C093C307E6
S113155080917E07813009F041C08FE997E00E94B5
S11315607E0188EA97E00E947E0181EB97E00E9469
S11315707E018AEB97E00E947E0188E697E00E9454
S11315807E018FE597E00E947E0182E997E00E9448
S11315907E0189E897E00E947E018FE797E00E9430
S11315A07E0188E697E090939E0780939D078FE5E0
S11315B097E090939C0780939B0710C080917A07D3
S11315C081110CC0E091C307F091C40796898E89FC
S11315D0891720F0D093C407C093C307809176077E
S11315E08F5F809376078E8990917B07981710F40C
S11315F080937B0790E09C01220F331F220F331F3F
S1131600220F331F820F931FB6018156984F0E94F9
S113161090010F900FBE80917A07882361F0E091CA
S1131620C307F091C40796898E89981730F40E94F5
S1131630AB0581E005C081E003C081E001C08FEF0C
S1131640DF91CF910F91FF90EF90DF90CF90BF90FB
S1131650AF909F908F907F906F905F904F90089580
S1131660EF92FF920F930F2EF2E7EF2EF7E0FF2E8B
S1131670F02D00E020E030E045E550E06AE471E060
S11316808FED99E00E94190A8130A1F40E949B0E0B
S1131690813081F4F8948FEF9FEF909375078093D6
S11316A0740781E080937A0710927D0710927C077B
S11316B00E9469050F91FF90EF9008958091710742
S11316C08F5F8093710708950FB6F8940F928091FD
S11316D07C0790917D070F900FBE0895CF92DF9203
S11316E0EF92FF920F931F93CF93DF938091710733
S11316F0811199C0E0907C07F0907D078FEFE81A84
S1131700F80AF0927D07E0927C07E114F104B9F441
S113171080919D0790919E0720919B0730919C0793
S113172030939E0720939D0790939C0780939B077B
S1131730809177078F5F809377070E946809809173
S1131740740790917507E816F90610F4D12C53C06C
S1131750D12CCC24C394E0919D07F0919E07808105
S1131760811107C08FEF9FEF9093750780937407E3
S113177042C0E0919D07F0919E070580F681E02D1F
S1131780C681D7818A819B81E816F90628F4909353
S11317907507809374072FC08E010E5F1F4FC80119
S11317A00E94E2018C899D89892B21F0CE010C963F
S11317B00E94E2018E8990917B07981710F4809320
S11317C07B0790E09C01220F331F220F331F220F4F
S11317D0331F820F931FB8018156984F0E949001C6
S11317E0E091C307F091C4079E898689981708F48D
S11317F0B2CFDC2CB0CFE091C307F091C407868947
S113180090E0FC01EE0FFF1FEE0FFF1FEE0FFF1F16
S11318108E0F9F1FFC01E156F84F8081823048F003
S1131820DD24D39406C0809179078F5F8093790774
S1131830D12C80917807882311F0DD24D3948D2D49
S1131840DF91CF911F910F91FF90EF90DF90CF9098
S11318500895DF92EF92FF920F931F93CF93DF933C
S11318600FB6F8940F92809171078150809371079D
S11318708091710781115FC080917E07811133C00F
S11318805DC0D7011596ED91FC911697C681D7815D
S1131890CE010C960E94E2018E010E5F1F4FC8011B
S11318A00E94E2018E8990917B07981710F480932F
S11318B07B0790E09C01220F331F220F331F220F5E
S11318C0331F820F931FB8018156984F0E949001D5
S11318D0E091C307F091C4079E898689981768F040
S11318E0D09278070AC0C0E0D0E00F2EF2E9EF2EC4
S11318F0F7E0FF2EF02DDD24D394F70180818111D0
S1131900C0CFCD2B11F00E946809C0917907CC2378
S113191051F0D1E00E946E0B8111D0937807C15031
S1131920C9F71092790780917807882331F00E94D3
S1131930AB0581E003C080E001C080E00F900FBEE2
S1131940DF91CF911F910F91FF90EF90DF90089559
S1131950CF93DF93EC01892B51F00E945E0B60E082
S1131960CE010E9487090E94290C811102C00E94A5
S1131970AB05DF91CF91089580917107882321F001
S113198081E080937807089510927807A091C307A7
S1131990B091C407E091C307F091C4072D913C9125
S11319A08789908D8217930760F06091C3077091C7
S11319B0C4078091C3079091C407675E7F4F0E945C
S11319C0710120917B07822F90E0FC01EE0FFF1F35
S11319D0EE0FFF1FEE0FFF1FE80FF91FE156F84F40
S11319E03081311111C02150822F90E0FC01EE0FA3
S11319F0FF1FEE0FFF1FEE0FFF1FE80FF91FE15649
S1131A00F84F3081332379F3AC01440F551F440F51
S1131A10551F440F551F480F591FDA01A156B84FDF
S1131A201196ED91FC9112970280F381E02D1296AC
S1131A30FC93EE9311974E55584FE417F50729F48C
S1131A4042815381FD0152834183FC01EE0FFF1F4C
S1131A50EE0FFF1FEE0FFF1F8E0F9F1FFC01E156BD
S1131A60F84F0180F281E02D868197819093C4071D
S1131A708093C30720937B070895CF93DF93EB01F3
S1131A806091C3077091C407645F7F4F0E94B101E6
S1131A9061E0CE010E948709DF91CF9108950F93F1
S1131AA01F93CF938B01C42F6091C3077091C40718
S1131AB0645F7F4F0E949001CC2311F00FEF1FEF62
S1131AC06C2FC8010E948709CF911F910F9108952F
S1131AD00F931F93CF93DF93DC011596ED91FC9147
S1131AE01697C681D7818E01045F1F4FC8010E94DB
S1131AF0E2018091710781111CC00A501109C801CB
S1131B000E94E2018E8990917B07981710F48093CC
S1131B107B0790E09C01220F331F220F331F220FFB
S1131B20331F820F931FB8018156984F0E94900172
S1131B3005C0B80182E997E00E949001E091C307D3
S1131B40F091C4079E898689891720F481E08093E7
S1131B50780701C080E0DF91CF911F910F91089524
S1131B6020917707FC01208320917C0730917D0729
S1131B70328321830895CF93DF930FB6F8940F92A5
S1131B8020917C0730917D07DB014D915C914F3FA3
S1131B90BFEF5B07F1F0EC01E981FA81A0917707CF
S1131BA0B881BA1719F02E173F07A8F42E1B3F0B64
S1131BB02417350748F4FB01421B530B5183408320
S1131BC00E94B00D80E008C0FB011182108281E008
S1131BD003C080E001C081E00F900FBEDF91CF9180
S1131BE0089581E080937807089580917A07882387
S1131BF031F080917107882321F080E0089581E01D
S1131C00089582E008950F931F93CF93DF93FC010F
S1131C10892B79F182A1815082A3268991A1291768
S1131C2051F181112AC0EF018F010E5F1F4FC801CE
S1131C300E94E20189A18E8B24E030E0281B310947
S1131C403D872C8790917B07981710F480937B072E
S1131C5090E09C01220F331F220F331F220F331FEA
S1131C60820F931FB8018156984F0E94900181E022
S1131C7005C080E003C080E001C080E0DF91CF9127
S1131C801F910F910895FC0173836283918780876C
S1131C904617570790F0421B530B848595854817C8
S1131CA05907E0F4BF016E5F7F4F8091DD0790918B
S1131CB0DE070E94B10180E008954217530718F42B
S1131CC06217730768F4BF016E5F7F4F8091DF076F
S1131CD09091E0070E94B10180E0089581E00895A9
S1131CE081E008950FB6F8940F928091DB079091EC
S1131CF0DC07892BE9F48EEC97E00E947E0185ECE9
S1131D0097E00E947E018EEC97E09093E007809329
S1131D10DF0785EC97E09093DE078093DD0740E0D2
S1131D2065E08AE00E9490079093DC078093DB07CC
S1131D300F900FBE0895EF92FF920F930E94720EC0
S1131D408091DB079091DC07892B91F00F2EF9ED40
S1131D50EF2EF7E0FF2EF02D03E020E030E045E524
S1131D6050E06FE471E085E79FE00E94190A01C02A
S1131D7080E00F91FF90EF9008950F931F93CF93FE
S1131D80DF9300D000D01F92CDB7DEB7E091DB0720
S1131D90F091DC07309771F1D90169835B834A8341
S1131DA09D838C836630ECF40E94F50D823061F4DF
S1131DB020E0A801BE016F5F7F4F8091DB07909107
S1131DC0DC070E94BD0717C020E040E050E0BE01E0
S1131DD06F5F7F4F8091DB079091DC070E94BD0706
S1131DE00AC020E0AD01BE016F5F7F4FCF010E94AA
S1131DF0780801C080E00F900F900F900F900F9023
S1131E00DF91CF911F910F910895AF92BF92CF921E
S1131E10DF92EF92FF920F931F93CF93DF936C01A6
S1131E200E94640B7C018091D7079091D807E81633
S1131E30F90608F048C030C00580F681E02DA08086
S1131E40B180C681D7818E010E5F1F4FC8010E94E9
S1131E50E201E989FA89CE0109958E858130E1F4A0
S1131E608C859D858A0D9B1DA816B90660F49B83FD
S1131E708A83D987C887B8018091DF079091E007EA
S1131E800E94B10109C000E010E020E030E0A501AB
S1131E9060E0CE010E94BD0EE091DF07F091E00703
S1131EA080818111C9CF8091DD079091DE079093E5
S1131EB0E0078093DF07F093DE07E093DD0781E01E
S1131EC0F601808302C0F6011082F092D807E092F6
S1131ED0D707C701DF91CF911F910F91FF90EF902A
S1131EE0DF90CF90BF90AF900895CF93DF9300D051
S1131EF000D000D0CDB7DEB7CE0101964C0144240A
S1131F004394E12CF12C512CC82ED92CE091DF07FD
S1131F10F091E0078081882309F4C2C00580F6812E
S1131F20E02DA080B1800E945E0BC4010E94050FC9
S1131F308C018981811147C00A151B0598F10E9403
S1131F40290CE091DF07F091E0070580F681E02D90
S1131F5066807780C30102960E94E201D3011E9637
S1131F608C911E978130B1F41C966D917C911D97D4
S1131F706A0D7B1D9501A801C3010E94430E8823AD
S1131F8049F00E2D1F2D2E2D3F2DA501652DC301CA
S1131F900E94BD0ED3015196ED91FC915297C3015D
S1131FA0099571C0452DB501601B710B8091DB074C
S1131FB09091DC070E944B090E94290C811163C097
S1131FC00E94AB0560C00E94290C5DC089818823F2
S1131FD00CF459C0AC80BD80F50182859385892BB2
S1131FE021F0C50102960E94E201CE0106960E94EC
S1131FF0050FE9810E2FEE0F110B220B330B0A3064
S1132000110508F040C0F801EC5CFF4F0C94F61188
S11320102A813B81D5011C966D917C911D97620F9D
S1132020731FAC01C5010E94430E882361F1D501E1
S11320305196ED91FC915297C5010995F50186855C
S1132040813009F54A815B8184859585480F591F44
S11320500E2D1F2D2E2D3F2D652DC5010E94BD0E69
S113206012C06A817B81D5011D967C936E931C9767
S1132070680F791F9C01AC01C5010E94430E03C087
S1132080C5010E9418014E2D5F2D6C2D7D2D809170
S1132090DB079091DC070E94B208811197CF36CFFD
S11320A00E945E0BC4010E94050F8C01898181117D
S11320B08ACFE091DD07F091DE078081442D811104
S11320C0452DAE2CBF2C6FCF5058BB27AA270E949A
S11320D07C100C945B110E944D1138F00E94541135
S11320E020F039F49F3F19F426F40C944A110EF4AD
S11320F0E095E7FB0C944411E92F0E946C1158F30E
S1132100BA17620773078407950720F079F4A6F5D8
S11321100C948E110EF4E0950B2EBA2FA02D0B010A
S1132120B90190010C01CA01A0011124FF27591B18
S113213099F0593F50F4503E68F11A16F040A22F1E
S1132140232F342F4427585FF3CF4695379527958F
S1132150A795F0405395C9F77EF41F16BA0B620B8E
S1132160730B840BBAF09150A1F0FF0FBB1F661FD5
S1132170771F881FC2F70EC0BA0F621F731F841F18
S113218048F4879577956795B795F7959E3F08F03E
S1132190B0CF9395880F08F09927EE0F9795879500
S11321A008950E94D8106894B1110C948F11089569
S11321B00E94741188F09F5798F0B92F9927B7514E
S11321C0B0F0E1F0660F771F881F991F1AF0BA95D7
S11321D0C9F714C0B13091F00E948E11B1E0089596
S11321E00C948E11672F782F8827B85F39F0B93F88
S11321F0CCF3869577956795B395D9F73EF490958A
S11322008095709561957F4F8F4F9F4F0895E89407
S113221009C097FB3EF490958095709561957F4F2A
S11322208F4F9F4F9923A9F0F92F96E9BB279395D8
S1132230F695879577956795B795F111F8CFFAF4E8
S1132240BB0F11F460FF1BC06F5F7F4F8F4F9F4F19
S113225016C0882311F096E911C0772321F09EE877
S1132260872F762F05C0662371F096E8862F70E0DD
S113227060E02AF09A95660F771F881FDAF7880FB7
S11322809695879597F9089597F99F6780E870E088
S113229060E008959FEF80EC089500240A941616D8
S11322A0170618060906089500240A941216130640
S11322B0140605060895092E0394000C11F48823CE
S11322C052F0BB0F40F4BF2B11F460FF04C06F5FEA
S11322D07F4F8F4F9F4F089557FD9058440F551FC0
S11322E059F05F3F71F04795880F97FB991F61F094
S11322F09F3F79F087950895121613061406551F0B
S1132300F2CF4695F1DF08C0161617061806991F76
S1132310F1CF86957105610508940895E894BB276B
S113232066277727CB0197F908950E947411E8F086
S11323309E37E8F09639B8F49E3848F4672F782F22
S11323408827985FF9CF8695779567959395953902
S1132350D0F3B62FB1706B0F711D811D20F48795DA
S11323607795679593950C94B9110C94D4110C94AA
S11323708F11882371F4772321F09850872B762FBF
S113238007C0662311F499270DC09051862B70E085
S113239060E02AF09A95660F771F881FDAF7880F96
S11323A09695879597F908959F3F31F0915020F4C1
S11323B0879577956795B795880F911D969587951D
S11323C097F9089597FB072E16F4009407D077FD2C
S11323D009D00E94FC1107FC05D03EF4909581952C
S11323E09F4F0895709561957F4F0895EE0FFF1FDD
S11323F00590F491E02D0994AA1BBB1B51E107C081
S1132400AA1FBB1FA617B70710F0A61BB70B881F80
S1132410991F5A95A9F780959095BC01CD0108950F
S1132420FB01DC0102C001900D9241505040D8F7ED
S11324300895DC0101C06D9341505040E0F70895C8
S1132440BB274A3031F4992322F4BDE2909581955B
S11324509F4F0C942C12BB27FB015527AA27880FEA
S1132460991FAA1FA41710F0A41B83955051B9F704
S1132470A05DAA3308F0A95DA193009779F7B11183
S1132480B1931192CB010C944512DC01FC01672F2E
S113249071917723E1F7329704C07C916D93708337
S11124A06291AE17BF07C8F30895F894FFCFFA
S11324AEF905416358203D2000000000207C2041A6
S11324BE6359203D2000207C2041635A203D20009A
S11324CE207C20477958203D2000207C20477959D4
S11324DE203D2000207C2047795A203D2000546165
S11324EE736B31005461736B320049444C45005494
S10B24FE6D72205376630000A7
S9030000FC
