S01200004672656552544F5331302E73726563E7
S11300000C943E000C9485000C945B000C945B00F3
S11300100C945B000C945B000C945B000C945B00F0
S11300200C945B000C945B000C945B000C945B00E0
S11300300C945B000C945B000C9418070C945B000C
S11300400C945B000C945B000C945B000C945B00C0
S11300500C945B000C945B000C945B000C945B00B0
S11300600C945B000C945B00901090109010CB10DB
S1130070B910C81090109010CB10B91011241FBEE5
S1130080CFEFD8E0DEBFCDBF11E0A0E0B1E0E8E9FA
S1130090F6E202C005900D92A636B107D9F727E023
S11300A0A6E6B1E001C01D92AA3FB207E1F70E94A3
S11300B00A050C944A130C9400008F938FB78F9306
S11300C0F8948091F6078F5F8093F6078091F70785
S11300D08F4F8093F7078091F8078F4F8093F8072D
S11300E08091F9078F4F8093F9078F918FBF8F917C
S11300F00895539A1BB8E89AE9E6F0E0808181609C
S1130100808383E08093810008951F920F920FB63D
S11301100F9211248F939F934A9B05C010928500E0
S11301201092840008C0809184009091850090937F
S1130130F0078093EF079F918F910F900FBE0F9060
S11301401F9018951092F0071092EF075B9A25E321
S11301502A95F1F700005B988091EF079091F007E2
S1130160892BD1F38091EF079091F00784379E405B
S1130170F0F46091EF077091F00780E090E00E9446
S11301808F112DEB37E346E856E30E941D1220E061
S113019030E040E05FE30E941D1220E03CEF45E0C8
S11301A057E40E941D120E946011862F089589E26F
S11301B008950F931F93CF93DF93EC010E94E60BF6
S11301C08091660181111DC0EBE6F1E080E791E0CA
S11301D09183808313821282E7E6F1E089EF95E050
S11301E09383828311821082AFE6B1E014969C93CC
S11301F08E9313971296FC93EE93119781E080935C
S11302006601209709F46BC09E012C5F3F4F239633
S1130210C83FD54008F060C0E0916B01F0916C01DB
S1130220ABE6B1E002C0DF01FC0182819381821759
S1130230930720F4808191810097A9F7C1E0E73604
S1130240FC0709F449C0CD91DC9111978E010C5F34
S11302501F4F808191818D939C9382819381821B16
S1130260930B8930910510F1BF01620F731FDB01FD
S113027013969C938E9312973383228312964D91F7
S11302805C9113978BE691E001C0CD01EC01A8814C
S1130290B98112962D913C91139724173507A8F331
S11302A0EB01B983A883DC016D937C9380910001F9
S11302B09091010122813381821B930B9093010160
S11302C0809300010E94B10C0115110559F40E949C
S11302D0C70100E010E006C00E94B10CF8CF0E94F4
S11302E0B10CF5CFC801DF91CF911F910F91089503
S11302F00F931F93CF93DF93009741F1EC018C018F
S1130300045011090E94E60BF80142815381ABE6C7
S1130310B1E001C0DF01ED91FC911197228133819D
S113032024173507B8F32497F983E8830D931C93B6
S113033020910001309101018A819B81820F931FDA
S113034090930101809300010E94B10CDF91CF9141
S11303501F910F9108958FE380937E0080B7877F6C
S113036080BF80B7806880BF83B7817F83BF0FB6AB
S1130370F8940F9283B7816083BF85B7806685BF89
S11303808F7D85BF0F900FBE889513BE0895259A63
S11303902D9A83ED90E30197F1F700C000001D9AB8
S11303A0F8CF259A2D9A2FE78AE196E021508040D4
S11303B09040E1F700C000001D9AF5CFFC010396C0
S11303C0928381832FEF3FEF348323839683858346
S11303D09087878310820895FC0111861086089502
S11303E0CF93DF939C01FB01DC011196CD91DC914D
S11303F01297D383C2838C819D81958384838C815E
S11304009D81DC0113967C936E9312977D836C839C
S113041031872087F90180818F5F8083DF91CF91BD
S11304200895CF93DF93EB01488159814F3F2FEF1C
S1130430520721F4FC01A781B0850DC0DC0113969D
S113044001C0DF011296ED91FC9113972081318157
S113045042175307B0F71296ED91FC911397FB8363
S1130460EA83D583C483BD83AC831396DC93CE9394
S1130470129799878887FC0120812F5F2083DF9161
S1130480CF910895CF93DF93FC01A085B185C281FC
S1130490D381848195819D838C83C481D58182811C
S11304A093819B838A8311968D919C911297E8176F
S11304B0F90731F48481958112969C938E93119758
S11304C0118610868C9181508C938C91DF91CF9101
S11304D00895D8E1C0E68091F1078A3098F4D5B93F
S11304E0CBB92FEF81EF9BE2215080409040E1F7A0
S11304F000C000001092690710926A0710926B07FF
S113050010926C078CE291E00E94300DE4CF1092BF
S1130510C50088E68093C400E1ECF0E088E18083C4
S113052080818860808380818061808386E080937D
S1130530C2000895E0ECF0E0908195FFFDCF809338
S1130540C6000895CF93DF93EC018881882331F0AE
S113055021960E949A0289918111FBCFDF91CF915C
S11305600895CF93DF93CDB7DEB72A970FB6F894EB
S1130570DEBF0FBECDBF0E94A2008093F1074AE008
S1130580BE016F5F7F4F90E00E941513CE0101966C
S11305900E94A2028CE091E00E94A2028CE291E00F
S11305A00E94300DE8CFCF93DF93880FECEBF0E09F
S11305B0A9EBB0E0CBEBD0E034E854EA74E9108264
S11305C050839081992354F09FEF915020812223EE
S11305D01CF09111FACFF3CF992389F39C91987F62
S11305E0983011F0903159F78883308390819923A2
S11305F054F09FEF9150208122231CF09111FACFE7
S1130600DECF9923E1F29C91987F983111F09034D8
S1130610B1F6688330839081992354F09FEF915011
S1130620208122231CF09111FACFC9CF992339F2EA
S11306309C91987F983219F648833083908199234E
S11306405CF09FEF9150208122231CF09111FACF8E
S1130650B6CF992309F4B3CF9C91987F983209F0CF
S1130660AECF7083908194FD0BC09FEF9150208199
S113067024FD03C09111FACFA2CF992309F49FCF8F
S1130680DF91CF910895CF92DF92EF92FF920F9373
S11306901F93CF93DF93880FCC24C394C80E30E10B
S11306A0ECEBF0E014EAF12C00E0C9EBD0E0ABEBAA
S11306B0B0E074E80F2EF4ECDF2EF02D0F2EF4E9E9
S11306C0EF2EF02D1083908199235CF09FEF9150D1
S11306D0208122231CF09111FACF94C0992309F4AC
S11306E098C09881987F983019F0903109F091C0A2
S11306F08C937083908199235CF09FEF91502081BB
S113070022231CF09111FACF7DC0992309F481C0F2
S11307109881987F983119F0903409F07AC06C93DD
S11307207083908199235CF09FEF91502081222364
S11307301CF09111FACF66C0992309F46AC098811C
S1130740987F983209F065C01083908199235CF0FA
S11307509FEF9150208122231CF09111FACF52C0B7
S1130760992309F456C09881987F983019F09031F4
S113077009F04FC0CC927083908199235CF09FEF75
S11307809150208122231CF09111FACF3BC0992370
S113079009F43FC09881987F983111F09034C9F5DD
S11307A0D0829081992344F09FEF9150208122239D
S11307B024F09111FACF01C09FEF4C9150E0542FD7
S11307C044279923F9F070839081992344F09FEF93
S11307D091502081222324F09111FACF01C09FEF80
S11307E02C91422B992371F0E082908194FD15C0E5
S11307F09FEF9150208124FD03C09111FACF02C0D4
S113080091110BC01082315009F05CCF40E050E0F0
S113081004C04F2D502F90E0F3CFCA01DF91CF9148
S11308201F910F91FF90EF90DF90CF900895CF9399
S1130830DF93CDB7DEB764970FB6F894DEBF0FBE73
S1130840CDBF0F2EF3E0BF2EF02D6E0188E0C80E51
S1130850D11C04E610E00F2EF0E2EF2EFAE0FF2E9A
S1130860F02D6BE388E60E9443034AE0BE01655F16
S11308707F4F0E94151387E0E2E0F1E0DE0111965C
S113088001900D928A95E1F7F6018B2D11928A95CC
S1130890E9F7CE0101960E94A202CE010B960E94B6
S11308A0A2026DE388E60E9443034AE0BE01655F4D
S11308B07F4F0E9415138AE0EEE0F1E0DE0111960D
S11308C001900D928A95E1F7CE0101960E94A20251
S11308D0CE010B960E94A2026FE388E60E944303B6
S11308E04AE0BE01655F7F4F0E9415138AE0E8E18C
S11308F0F1E0DE01119601900D928A95E1F7CE01A7
S113090001960E94A202CE010B960E94A20263E409
S113091088E60E9443034AE0BE01655F7F4F0E9460
S113092015138AE0E2E2F1E0DE01119601900D92E6
S11309308A95E1F7CE0101960E94A202CE010B96A0
S11309400E94A20265E488E60E9443034AE0BE01D5
S1130950655F7F4F0E9415138AE0ECE2F1E0DE014F
S1130960119601900D928A95E1F7CE0101960E94AD
S1130970A202CE010B960E94A20267E488E60E94BE
S11309804303B8010E94D712072E000C880B990B61
S11309900E9491110E948A122B013C016091690707
S11309A070916A0780916B0790916C070E94911176
S11309B0A30192010E94ED100E945911DC01CB01A8
S11309C08093690790936A07A0936B07B0936C07B1
S11309D04AE0BE01655F7F4F0E9415138AE0E6E39B
S11309E0F1E0DE01119601900D928A95E1F7CE01B6
S11309F001960E94A202CE010B960E94A202FA82E4
S1130A00E9821B82CE0101960E94A202C8010E94C3
S1130A10300D27CF0E9479000E9487028CE08093DA
S1130A20B80047E069E188E60E94D30248E16BE13F
S1130A3088E60E94D30241E06BE688E60E94D30276
S1130A40E12CF12C01E020E030E045E550E060E4E9
S1130A5071E087E194E00E94A10A20E030E045E5DE
S1130A6050E066E471E08CE995E00E94A10A20E080
S1130A7030E045E550E06CE471E081EB92E00E94E7
S1130A80A10A02E020E030E045E550E062E571E0D3
S1130A9089E692E00E94A10A78940E94B80BFFCFE5
S1130AA088E185B980E68BB981E090E00E94300D41
S1130AB080E185B980E28BB985E090E00E94300D39
S1130AC0089584E185B980EA8BB981E090E00E94C1
S1130AD0300D80E185B980E28BB985E090E00E9419
S1130AE0300D08958091690790916A07A0916B0772
S1130AF0B0916C070097A105B10589F484E185B92B
S1130B0080E68BB981E090E00E94300D80E185B9E8
S1130B1080E28BB981E090E00E94300D0895BB2300
S1130B201CF40E9450050895181619061A061B068F
S1130B3014F40E94610508950E947205FDCF31E10D
S1130B40FC013083319722E220833197A3E3A08311
S1130B50319760833197708331971082319760E8C1
S1130B60608331971082319762E06083319763E04C
S1130B706083319764E06083319765E060833197E7
S1130B8066E06083319767E06083319768E0608353
S1130B90319769E06083319760E1608331973083F6
S1130BA0319732E13083319733E13083319734E147
S1130BB03083319735E13083319736E13083319793
S1130BC037E13083319738E13083319739E130832D
S1130BD0319730E23083319731E23083319720838B
S1130BE0319723E2208331974083319750833197A3
S1130BF026E22083319727E22083319728E220835D
S1130C00319729E22083319720E32083319721E330
S1130C1020838697089581E194E09093F30780936D
S1130C20F2079093F5078093F4078EE087BD82E086
S1130C3084BD85E085BDEEE6F0E08081826080833E
S1130C40A091D107B091D207CD91CDBFDD91DEBF88
S1130C50FF91EF91DF91CF91BF91AF919F918F91D0
S1130C607F916F915F914F913F912F911F910F91C0
S1130C70FF90EF90DF90CF90BF90AF909F908F90B8
S1130C807F906F905F904F903F902F901F900F90A8
S1130C900FBE0F90089581E008950F920FB6F89457
S1130CA00F921F9211242F923F924F925F926F9254
S1130CB07F928F929F92AF92BF92CF92DF92EF92E8
S1130CC0FF920F931F932F933F934F935F936F93D1
S1130CD07F938F939F93AF93BF93CF93DF93EF93C0
S1130CE0FF93A091D107B091D2070DB60D920EB625
S1130CF00D920E94440DA091D107B091D207CD91DD
S1130D00CDBFDD91DEBFFF91EF91DF91CF91BF9118
S1130D10AF919F918F917F916F915F914F913F918F
S1130D202F911F910F91FF90EF90DF90CF90BF9084
S1130D30AF909F908F907F906F905F904F903F9077
S1130D402F901F900F900FBE0F9008950F920FB623
S1130D50F8940F921F9211242F923F924F925F9218
S1130D606F927F928F929F92AF92BF92CF92DF92B7
S1130D70EF92FF920F931F932F933F934F935F93A1
S1130D806F937F938F939F93AF93BF93CF93DF938F
S1130D90EF93FF93A091D107B091D2070DB60D92B6
S1130DA00EB60D9213BE8091F4079091F50701974A
S1130DB09093F5078093F407892B51F40E945D000A
S1130DC08091F2079091F3079093F5078093F407CD
S1130DD00E94F60B81110E94440DA091D107B0919D
S1130DE0D207CD91CDBFDD91DEBFFF91EF91DF91B1
S1130DF0CF91BF91AF919F918F917F916F915F91AF
S1130E004F913F912F911F910F91FF90EF90DF90A1
S1130E10CF90BF90AF909F908F907F906F905F9096
S1130E204F903F902F901F900F900FBE0F900895FA
S1130E300E94A60618950FB6F8940F92FC01928DA5
S1130E400F900FBE81E0911180E008950F931F93DE
S1130E50CF93DF93EC01042F1A8D4C8D41110CC0FC
S1130E6088819981892B09F042C08C819D810E94DF
S1130E708B0E1D821C8242C0011117C050E08A8172
S1130E809B810E9405132C8D8A819B81820F911D69
S1130E909B838A832C813D818217930750F188813B
S1130EA099819B838A8380E029C050E08E819F8151
S1130EB00E9405138C8D90E09195819591092E8166
S1130EC03F81280F391F3F832E834881598124177E
S1130ED0350730F42C813D81820F931F9F838E83CD
S1130EE0023049F4112349F0115080E007C080E03A
S1130EF005C080E003C080E001C080E01F5F1A8F5E
S1130F00DF91CF911F910F910895FC01448D4423EB
S1130F10A9F050E026813781240F351F37832683BB
S1130F20848195812817390720F0808191819783E6
S1130F308683CB01668177810E9405130895EF9221
S1130F40FF920F931F93CF938C010FB6F8940F92D7
S1130F50FC01C68D1C16ACF48189811106C011C038
S1130F60F8018189811105C00CC07801F1E1EF0E0F
S1130F70F11CC7010E94F00D81110E94790EC1502D
S1130F8079F78FEFF801868F0F900FBE0FB6F894A4
S1130F900F92C58D1C16ACF48085811106C011C05A
S1130FA0F8018085811105C00CC07801F8E0EF0ECE
S1130FB0F11CC7010E94F00D81110E94790EC150ED
S1130FC079F78FEFF801858F0F900FBECF911F91A6
S1130FD00F91FF90EF900895CF93DF93EC010FB63C
S1130FE0F8940F92E881F9818B8D2C8D90E030E09C
S1130FF0829FA001839F500D929F500D11244E0F8C
S11310005F1F5D834C831A8EFB83EA830197829F63
S1131010A001839F500D929F500D1124CF01840F86
S1131020951F9F838E838FEF8D8F8E8F61110CC0E0
S11310308885882389F0CE0108960E94F00D8823C4
S113104059F00E944D0608C0CE0108960E94DE01A8
S1131050CE0141960E94DE010F900FBE81E0DF9128
S1131060CF9108950F931F93CF93DF93082F162FDB
S11310706623C1F0869FC00111244F960E94D900B7
S1131080EC01009741F415C00B8F1C8F61E0CE0179
S11310900E94EC070EC04F9699838883F5CFD983BD
S11310A0C883F2CF8FE190E00E94D900EC01892B34
S11310B0B1F7CE01DF91CF911F910F9108959F92C7
S11310C0AF92BF92CF92DF92EF92FF920F931F9352
S11310D0CF93DF9300D000D01F92CDB7DEB78C0141
S11310E06B015D834C83A22EB12C992493947C01D3
S11310F088E0E80EF11C0FB6F8940F92F801928D77
S1131100838D981718F0F2E0AF1219C04A2DB6017A
S1131110C8010E942607F8019189992349F0C80162
S113112041960E94F00D882331F00E944D0603C0C1
S113113081110E944D060F900FBE81E050C08C813A
S11311409D81892B21F40F900FBE80E048C0B1101F
S113115005C0CE0101960E94380EB92C0F900FBE27
S11311600E94E60B0FB6F8940F92F801858D8F3F1D
S113117009F4158EF801868D8F3F09F4168E0F90B1
S11311800FBEBE016C5F7F4FCE0101960E94430EDD
S113119081111FC00FB6F8940F92F801928D838DC0
S11311A00F900FBE98130FC06C817D81C7010E9400
S11311B0C50DC8010E949F070E94B10C81119BCFED
S11311C00E944D0698CFC8010E949F070E94B10C4F
S11311D092CFC8010E949F070E94B10C80E00F903B
S11311E00F900F900F900F90DF91CF911F910F915F
S11311F0FF90EF90DF90CF90BF90AF909F900895B5
S1131200EF92FF920F931F93CF93DF938A01FC0118
S1131210528D338D531710F02230F1F4422F7801A0
S1131220EC011E8D0E9426071F3F81F489898823C3
S1131230A9F0CE0141960E94F00D882389F0E114B3
S1131240F10481F081E0F70180830DC0FF24F39461
S1131250F10EFE8E81E007C080E005C081E003C08E
S113126081E001C081E0DF91CF911F910F91FF9048
S1131270EF9008959F92AF92BF92CF92DF92EF9238
S1131280FF920F931F93CF93DF9300D000D01F9250
S1131290CDB7DEB78C015B015D834C83E12C9924CF
S11312A093946C0181E1C80ED11C0FB6F8940F928F
S11312B0F801F28CFF20A9F0B501C8010E9485074E
S11312C0FA94F801F28E8085882339F0C8010896D3
S11312D00E94F00D81110E944D060F900FBE81E017
S11312E051C08C819D81892B21F40F900FBE80E029
S11312F049C0E11005C0CE0101960E94380EE92CC8
S11313000F900FBE0E94E60B0FB6F8940F92F801EF
S1131310858D8F3F09F4158EF801868D8F3F09F472
S1131320168E0F900FBEBE016C5F7F4FCE010196EB
S11313300E94430E81111AC0C8010E941B07882312
S113134079F06C817D81C6010E94C50DC8010E949F
S11313509F070E94B10C8111A8CF0E944D06A5CF12
S1131360C8010E949F070E94B10C9FCFC8010E9430
S11313709F070E94B10CC8010E941B07882309F42F
S113138094CF80E00F900F900F900F900F90DF910B
S1131390CF911F910F91FF90EF90DF90CF90BF906E
S11313A0AF909F900895CF93DF93EC010FB6F8941C
S11313B00F928D8D8F3F09F41D8E8E8D8F3F09F412
S11313C01E8E0F900FBE8A8D811104C0CE014196EE
S11313D00E94D70DCE010E949F07DF91CF910895FF
S11313E0E091AB07F091AC078081811107C08FEFCA
S11313F09FEF90938307809382070895E091AB0752
S1131400F091AC070580F681E02D0680F781E02D90
S11314108281938190938307809382070895FF923A
S11314200F931F93CF93DF93EC01F62E00918A075D
S113143010918B078091D1079091D20702960E9458
S11314404202CF3F8FEFD80769F4FF2059F0609133
S1131450D1077091D2076E5F7F4F8DE897E00E94AD
S1131460F0012FC0C00FD11FE091D107F091D20736
S1131470D383C283C017D10768F46091D1077091F8
S1131480D2078091A9079091AA076E5F7F4F0E94AF
S1131490110217C06091D1077091D2078091AB07F8
S11314A09091AC076E5F7F4F0E941102809182077A
S11314B090918307C817D90720F4D0938307C0936A
S11314C08207DF91CF911F910F91FF90089507E953
S11314D017E00F2EFDEAEF2EF7E0FF2EF02D80919E
S11314E09607882329F10FB6F8940F92D801159620
S11314F0ED91FC911697C681D781CE0102960E9488
S1131500420280918C07815080938C0780919607CA
S11315108150809396070F900FBE8F89988D0E94FB
S11315207801CE010E947801809196078111DBCF6A
S1131530F7018081823010F00E944D060E94AB01B9
S1131540CECF4F925F926F927F928F929F92AF9283
S1131550BF92CF92DF92EF92FF920F93CF93DF93DC
S11315604C016B015A012901CA010E94D9003C01B6
S1131570892B09F4ECC088E290E00E94D900EC01C8
S1131580892BB1F0788E6F8AA50165EA70E0C301FA
S11315900E940E1381E0A81AB1088F89988DA80EB5
S11315A0B91ED6018C91898F8C91811105C018C008
S11315B0C3010E947801CBC0AE01465E5F4FF601C5
S11315C03196B8E0CB0ED11CCF012191DA012D93D5
S11315D0AD01DC018C91882319F0EC15FD05A1F710
S11315E018A2043008F003E00E8B09A31AA26E01BE
S11315F0B2E0CB0ED11CC6010E94EC01CE010C96C8
S11316000E94EC01D987C88784E090E0801B91098F
S11316109D878C87DB8BCA8B1BA21CA21DA21EA2DA
S11316201FA2A201B401C5010E949F05998388836A
S1131630E114F10419F0F701D183C0830FB6F894D3
S11316400F9280918C078F5F80938C078091D107D4
S11316509091D207892BD1F5D093D207C093D107AB
S113166080918C07813009F041C08DEA97E00E9497
S1131670DE0186EB97E00E94DE018FEB97E00E948B
S1131680DE0188EC97E00E94DE0186E797E00E9485
S1131690DE018DE697E00E94DE0180EA97E00E9479
S11316A0DE0187E997E00E94DE018DE897E00E9461
S11316B0DE0186E797E09093AC078093AB078DE655
S11316C097E09093AA078093A90710C08091880798
S11316D081110CC0E091D107F091D20796898E89CF
S11316E0891720F0D093D207C093D1078091840743
S11316F08F5F809384078E8990918907981710F4DF
S11317008093890790E09C01220F331F220F331F1F
S1131710220F331F820F931FB6018355984F0E94E7
S1131720F0010F900FBE80918807882361F0E0914B
S1131730D107F091D20796898E89981730F40E94C8
S11317404D0681E005C081E003C081E001C08FEF58
S1131750DF91CF910F91FF90EF90DF90CF90BF90EA
S1131760AF909F908F907F906F905F904F9008956F
S1131770EF92FF920F930F2EF0E8EF2EF7E0FF2E7B
S1131780F02D00E020E030E045E550E068E571E050
S113179087E69AE00E94A10A8130A1F40E94230FF7
S11317A0813081F4F8948FEF9FEF909383078093B7
S11317B0820781E08093880710928B0710928A0732
S11317C00E940B060F91FF90EF90089580917F0780
S11317D08F5F80937F0708950FB6F8940F928091DE
S11317E08A0790918B070F900FBE0895CF92DF92D6
S11317F0EF92FF920F931F93CF93DF9380917F0714
S1131800811199C0E0908A07F0908B078FEFE81A56
S1131810F80AF0928B07E0928A07E114F104B9F414
S11318208091AB079091AC072091A9073091AA074A
S11318303093AC072093AB079093AA078093A90732
S1131840809185078F5F809385070E94F0098091BE
S1131850820790918307E816F90610F4D12C53C03F
S1131860D12CCC24C394E091AB07F091AC078081D8
S1131870811107C08FEF9FEF9093830780938207B6
S113188042C0E091AB07F091AC070580F681E02DF2
S1131890C681D7818A819B81E816F90628F4909342
S11318A08307809382072FC08E010E5F1F4FC801EC
S11318B00E9442028C899D89892B21F0CE010C96CD
S11318C00E9442028E8990918907981710F48093A0
S11318D0890790E09C01220F331F220F331F220F30
S11318E0331F820F931FB8018355984F0E94F00154
S11318F0E091D107F091D2079E898689981708F460
S1131900B2CFDC2CB0CFE091D107F091D207868919
S113191090E0FC01EE0FFF1FEE0FFF1FEE0FFF1F05
S11319208E0F9F1FFC01E355F84F8081823048F0F1
S1131930DD24D39406C0809187078F5F8093870747
S1131940D12C80918607882311F0DD24D3948D2D2A
S1131950DF91CF911F910F91FF90EF90DF90CF9087
S11319600895DF92EF92FF920F931F93CF93DF932B
S11319700FB6F8940F9280917F07815080937F0770
S113198080917F0781115FC080918C07811133C0E2
S11319905DC0D7011596ED91FC911697C681D7814C
S11319A0CE010C960E9442028E010E5F1F4FC801A9
S11319B00E9442028E8990918907981710F48093AF
S11319C0890790E09C01220F331F220F331F220F3F
S11319D0331F820F931FB8018355984F0E94F00163
S11319E0E091D107F091D2079E898689981768F013
S11319F0D09286070AC0C0E0D0E00F2EF0EAEF2EA6
S1131A00F7E0FF2EF02DDD24D394F70180818111BE
S1131A10C0CFCD2B11F00E94F009C0918707CC23D1
S1131A2051F0D1E00E94F60B8111D0938607C1508A
S1131A30C9F71092870780918607882331F00E94A6
S1131A404D0681E003C080E001C080E00F900FBE2E
S1131A50DF91CF911F910F91FF90EF90DF90089548
S1131A60CF93DF93EC01892B51F00E94E60B60E0E9
S1131A70CE010E940F0A0E94B10C811102C00E9483
S1131A804D06DF91CF91089580917F07882321F03F
S1131A9081E080938607089510928607A091D1076C
S1131AA0B091D207E091D107F091D2072D913C91EA
S1131AB08789908D8217930760F06091D1077091A8
S1131AC0D2078091D1079091D207675E7F4F0E9421
S1131AD0D10120918907822F90E0FC01EE0FFF1FB6
S1131AE0EE0FFF1FEE0FFF1FE80FF91FE355F84F2E
S1131AF03081311111C02150822F90E0FC01EE0F92
S1131B00FF1FEE0FFF1FEE0FFF1FE80FF91FE35536
S1131B10F84F3081332379F3AC01440F551F440F40
S1131B20551F440F551F480F591FDA01A355B84FCD
S1131B301196ED91FC9112970280F381E02D12969B
S1131B40FC93EE9311974055584FE417F50729F489
S1131B5042815381FD0152834183FC01EE0FFF1F3B
S1131B60EE0FFF1FEE0FFF1F8E0F9F1FFC01E355AB
S1131B70F84F0180F281E02D868197819093D207FE
S1131B808093D107209389070895CF93DF93EB01C6
S1131B906091D1077091D207645F7F4F0E94110258
S1131BA061E0CE010E940F0ADF91CF9108950F9357
S1131BB01F93CF938B01C42F6091D1077091D207EB
S1131BC0645F7F4F0E94F001CC2311F00FEF1FEFF1
S1131BD06C2FC8010E940F0ACF911F910F91089595
S1131BE00F931F93CF93DF93DC011596ED91FC9136
S1131BF01697C681D7818E01045F1F4FC8010E94CA
S1131C00420280917F0781111CC00A501109C8014A
S1131C100E9442028E8990918907981710F480934C
S1131C20890790E09C01220F331F220F331F220FDC
S1131C30331F820F931FB8018355984F0E94F00100
S1131C4005C0B80180EA97E00E94F001E091D10755
S1131C50F091D2079E898689891720F481E08093C8
S1131C60860701C080E0DF91CF911F910F91089505
S1131C7020918507FC01208320918A0730918B07EE
S1131C80328321830895CF93DF930FB6F8940F9294
S1131C9020918A0730918B07DB014D915C914F3F76
S1131CA0BFEF5B07F1F0EC01E981FA81A0918507B0
S1131CB0B881BA1719F02E173F07A8F42E1B3F0B53
S1131CC02417350748F4FB01421B530B518340830F
S1131CD00E94380E80E008C0FB011182108281E06E
S1131CE003C080E001C081E00F900FBEDF91CF916F
S1131CF0089581E08093860708958091880788235A
S1131D0031F080917F07882321F080E0089581E0FD
S1131D10089582E008950F931F93CF93DF93FC01FE
S1131D20892B79F182A1815082A3268991A1291757
S1131D3051F181112AC0EF018F010E5F1F4FC801BD
S1131D400E94420289A18E8B24E030E0281B3109D5
S1131D503D872C8790918907981710F48093890701
S1131D6090E09C01220F331F220F331F220F331FD9
S1131D70820F931FB8018355984F0E94F00181E0B0
S1131D8005C080E003C080E001C080E0DF91CF9116
S1131D901F910F910895FC0173836283918780875B
S1131DA04617570790F0421B530B848595854817B7
S1131DB05907E0F4BF016E5F7F4F8091EB0790916C
S1131DC0EC070E94110280E008954217530718F4AB
S1131DD06217730768F4BF016E5F7F4F8091ED0750
S1131DE09091EE070E94110280E0089581E0089529
S1131DF081E008950FB6F8940F928091E9079091CD
S1131E00EA07892BE9F48CED97E00E94DE0183ED6B
S1131E1097E00E94DE018CED97E09093EE078093AB
S1131E20ED0783ED97E09093EC078093EB0740E098
S1131E3065E08AE00E9432089093EA078093E907FC
S1131E400F900FBE0895EF92FF920F930E94FA0E27
S1131E508091E9079091EA07892B91F00F2EF7EE14
S1131E60EF2EF7E0FF2EF02D03E020E030E045E513
S1131E7050E06DE571E08DEF9FE00E94A10A01C082
S1131E8080E00F91FF90EF9008950F931F93CF93ED
S1131E90DF9300D000D01F92CDB7DEB7E091E90701
S1131EA0F091EA07309771F1D90169835B834A8322
S1131EB09D838C836630ECF40E947D0E823061F445
S1131EC020E0A801BE016F5F7F4F8091E9079091E8
S1131ED0EA070E945F0817C020E040E050E0BE011E
S1131EE06F5F7F4F8091E9079091EA070E945F0836
S1131EF00AC020E0AD01BE016F5F7F4FCF010E9499
S1131F00000901C080E00F900F900F900F900F9088
S1131F10DF91CF911F910F910895AF92BF92CF920D
S1131F20DF92EF92FF920F931F93CF93DF936C0195
S1131F300E94EC0B7C018091E5079091E607E8167E
S1131F40F90608F048C030C00580F681E02DA08075
S1131F50B180C681D7818E010E5F1F4FC8010E94D8
S1131F604202E989FA89CE0109958E858130E1F42E
S1131F708C859D858A0D9B1DA816B90660F49B83EC
S1131F808A83D987C887B8018091ED079091EE07BD
S1131F900E94110209C000E010E020E030E0A50139
S1131FA060E0CE010E94450FE091ED07F091EE074D
S1131FB080818111C9CF8091EB079091EC079093B8
S1131FC0EE078093ED07F093EC07E093EB0781E0D5
S1131FD0F601808302C0F6011082F092E607E092D7
S1131FE0E507C701DF91CF911F910F91FF90EF900B
S1131FF0DF90CF90BF90AF900895CF93DF9300D040
S113200000D000D0CDB7DEB7CE0101964C014424F8
S11320104394E12CF12C512CC82ED92CE091ED07DE
S1132020F091EE078081882309F4C2C00580F6810F
S1132030E02DA080B1800E94E60BC4010E948D0FA8
S11320408C018981811147C00A151B0598F10E94F2
S1132050B10CE091ED07F091EE070580F681E02DDB
S113206066807780C30102960E944202D3011E96C5
S11320708C911E978130B1F41C966D917C911D97C3
S11320806A0D7B1D9501A801C3010E94CB0E882314
S113209049F00E2D1F2D2E2D3F2DA501652DC301B9
S11320A00E94450FD3015196ED91FC915297C301C3
S11320B0099571C0452DB501601B710B8091E9072D
S11320C09091EA070E94D3090E94B10C811163C068
S11320D00E944D0660C00E94B10C5DC089818823B6
S11320E00CF459C0AC80BD80F50182859385892BA1
S11320F021F0C50102960E944202CE0106960E947A
S11321008D0FE9810E2FEE0F110B220B330B0A30CA
S1132110110508F040C0F801EC5CFF4F0C94EB1281
S11321202A813B81D5011C966D917C911D97620F8C
S1132130731FAC01C5010E94CB0E882361F1D50148
S11321405196ED91FC915297C5010995F50186854B
S1132150813009F54A815B8184859585480F591F33
S11321600E2D1F2D2E2D3F2D652DC5010E94450FCF
S113217012C06A817B81D5011D967C936E931C9756
S1132180680F791F9C01AC01C5010E94CB0E03C0EE
S1132190C5010E9478014E2D5F2D6C2D7D2D8091FF
S11321A0E9079091EA070E943A09811197CF36CF47
S11321B00E94E60BC4010E948D0F8C01898181115C
S11321C08ACFE091EB07F091EC078081442D8111D7
S11321D0452DAE2CBF2C6FCF5058BB27AA270E9489
S11321E004110C94E3110E94D51138F00E94DC1103
S11321F020F039F49F3F19F426F40C94D2110EF414
S1132200E095E7FB0C94CC11E92F0E94F41158F3EC
S1132210BA17620773078407950720F079F4A6F5C7
S11322200C9416120EF4E0950B2EBA2FA02D0B0170
S1132230B90190010C01CA01A0011124FF27591B07
S113224099F0593F50F4503E68F11A16F040A22F0D
S1132250232F342F4427585FF3CF4695379527957E
S1132260A795F0405395C9F77EF41F16BA0B620B7D
S1132270730B840BBAF09150A1F0FF0FBB1F661FC4
S1132280771F881FC2F70EC0BA0F621F731F841F07
S113229048F4879577956795B795F7959E3F08F02D
S11322A0B0CF9395880F08F09927EE0F97958795EF
S11322B008950E9460116894B1110C941712089546
S11322C00E94FC1188F09F5798F0B92F9927B751B5
S11322D0B0F0E1F0660F771F881F991F1AF0BA95C6
S11322E0C9F714C0B13091F00E941612B1E00895FC
S11322F00C941612672F782F8827B85F39F0B93FEE
S1132300CCF3869577956795B395D9F73EF4909578
S11323108095709561957F4F8F4F9F4F0895E894F6
S113232009C097FB3EF490958095709561957F4F19
S11323308F4F9F4F9923A9F0F92F96E9BB279395C7
S1132340F695879577956795B795F111F8CFFAF4D7
S1132350BB0F11F460FF1BC06F5F7F4F8F4F9F4F08
S113236016C0882311F096E911C0772321F09EE866
S1132370872F762F05C0662371F096E8862F70E0CC
S113238060E02AF09A95660F771F881FDAF7880FA6
S11323909695879597F9089597F99F6780E870E077
S11323A060E008959FEF80EC089500240A941616C7
S11323B0170618060906089500240A94121613062F
S11323C0140605060895092E0394000C11F48823BD
S11323D052F0BB0F40F4BF2B11F460FF04C06F5FD9
S11323E07F4F8F4F9F4F089557FD9058440F551FAF
S11323F059F05F3F71F04795880F97FB991F61F083
S11324009F3F79F087950895121613061406551FF9
S1132410F2CF4695F1DF08C0161617061806991F65
S1132420F1CF86957105610508940895E894BB275A
S113243066277727CB0197F908950E9430120C94F0
S1132440E3110E94D51138F00E94DC1120F095238D
S113245011F00C94CC110C94D21111240C94171279
S11324600E94F41170F3959FC1F3950F50E0551F2E
S1132470629FF001729FBB27F00DB11D639FAA27D5
S1132480F00DB11DAA1F649F6627B00DA11D661F24
S1132490829F2227B00DA11D621F739FB00DA11D45
S11324A0621F839FA00D611D221F749F3327A00DFF
S11324B0611D231F849F600D211D822F762F6A2F9B
S11324C011249F5750409AF0F1F088234AF0EE0F00
S11324D0FF1FBB1F661F771F881F91505040A9F72D
S11324E09E3F510580F00C94CC110C9417125F3F61
S11324F0E4F3983ED4F3869577956795B795F79569
S1132500E7959F5FC1F7FE2B880F911D96958795E0
S113251097F908950E94FC11E8F09E37E8F0963987
S1132520B8F49E3848F4672F782F8827985FF9CF3E
S113253086957795679593959539D0F3B62FB170B5
S11325406B0F711D811D20F4879577956795939581
S11325500C94AE120C94C9120C941712882371F4C3
S1132560772321F09850872B762F07C0662311F428
S113257099270DC09051862B70E060E02AF09A955F
S1132580660F771F881FDAF7880F9695879597F956
S113259008959F3F31F0915020F487957795679582
S11325A0B795880F911D9695879597F9089597FB90
S11325B0072E16F4009407D077FD09D00E94F1127B
S11325C007FC05D03EF4909581959F4F0895709532
S11325D061957F4F0895EE0FFF1F0590F491E02D54
S11325E00994AA1BBB1B51E107C0AA1FBB1FA61756
S11325F0B70710F0A61BB70B881F991F5A95A9F7A8
S113260080959095BC01CD010895FB01DC0102C0C9
S113261001900D9241505040D8F70895DC0101C05B
S11326206D9341505040E0F70895BB274A3031F490
S1132630992322F4BDE2909581959F4F0C94211328
S1132640BB27FB015527AA27880F991FAA1FA41788
S113265010F0A41B83955051B9F7A05DAA3308F07C
S1132660A95DA193009779F7B111B1931192CB01B0
S11326700C943A13DC01FC01672F71917723E1F785
S1132680329704C07C916D9370836291AE17BF073B
S10B2690C8F30895F894FFCF8C
S1132698F905416358203D20000000000A00207C11
S11326A820416359203D2000207C2041635A203D6D
S11326B82000207C20477958203D2000207C20479A
S11326C87959203D2000207C2047795A203D20005C
S11326D85461736B31005461736B32005461736BD2
S11326E833005461736B340049444C4500546D7293
S10926F82053766300008C
S9030000FC
